:100000000C948A000C94A9000C94A9000C94A900EB
:100010000C940C040C94A9000C94A9000C94A90055
:100020000C94A9000C94A9000C94A9000C94A900AC
:100030000C94A9000C94A9000C94A9000C94A9009C
:100040000C94A9000C94A9000C94A9000C94A9008C
:100050000C94A9000C94A9000C94A9000C94A9007C
:100060000C94A9000C94A9000C94A9000C94A9006C
:100070000C94A9000C94A9000C94A9000C94A9005C
:100080000C94A9000C94A9000C94A900084AD73B31
:100090003BCE016E84BCBFFDC12F3D6C74319ABD57
:1000A00056833DDA3D00C77F11BED9E4BB4C3E917B
:1000B0006BAAAABE000000803F05A84CCDB2D44E6A
:1000C000B93836A9020C50B9918688083CA6AAAA6C
:1000D0002ABE000000803F004E414E494E4954590F
:1000E000494E46CDCCCC3D0AD7233C17B7D1387703
:1000F000CC2B329595E6241FB14F0A000020410019
:1001000000C84200401C4620BCBE4CCA1B0E5AAE62
:10011000C59D740011241FBECFEFD0E4DEBFCDBF5C
:1001200016E0A0E0B1E0ECEFF2E300E00BBF02C0AC
:1001300007900D92AA3FB107D9F727E2AAEFB6E0E0
:1001400001C01D92A838B207E1F70E948B130C94EE
:100150007C190C94000081E0409124075091250700
:1001600020912207309123074217530709F480E0BA
:1001700008954F925F926F927F928F929F92AF926B
:10018000BF92EF92FF920F931F93CF934B015C01AD
:100190008A0120E030E0A9010E947B14C0E087FFC3
:1001A00008C08DE2F8018083B7FAB094B7F8B09434
:1001B000C1E0C501B4010E94FE147B0190E080E023
:1001C0000E942D159B01AC01C501B4010E949C1336
:1001D00020E030E44CE156E40E944D1620E030E08F
:1001E00040E05FE30E949D130E94FE149B0160317A
:1001F000774228F08FEFE81AF80A30E020E0E4E6D2
:10020000EE16F104D8F0F801EC0FF11DC70164E619
:1002100070E00E944117605D6083CF5FF801EC0FD2
:10022000F11DC70164E670E00E9441176AE070E0CA
:100230000E944117605D6083CF5F04C0FAE0EF1653
:10024000F10460F7F801EC0FF11D8AE0A82EB12C43
:10025000C701B5010E944117805D8083E1E0EC0F8A
:10026000E00FF12FF11D8EE28083E2E0EC0FE00F52
:10027000F12FF11DC90168EE73E00E944117605D26
:100280006083E3E0EC0FE00FF12FF11D44E6E42E74
:10029000F12CB7010E944117605D6083E4E0EC0F30
:1002A000E00FF12FF11DC901B7010E944117B501FF
:1002B0000E944117605D6083E5E0EC0FE00FF12FD5
:1002C000F11DC901B5010E944117805D8083E6E000
:1002D000EC0FE00FF12FF11D1082CF911F910F91C4
:1002E000FF90EF90BF90AF909F908F907F906F9016
:1002F0005F904F9008950F93CF93DF9300D0CDB7C9
:10030000DEB78FE00E94070D00E021E047EB53E0ED
:1003100064E18AE00E94370E21E047EC53E06DE291
:100320008FE00E94370E80910001805D89831A82E0
:1003300023E0AE014F5F5F4F61E487E30E94370E19
:1003400021E048ED53E06CE68CE00E94370E0E94FD
:10035000320D0F900F90DF91CF910F9108950F9371
:10036000CF93DF9300D0CDB7DEB78FE00E94070DAB
:1003700000E021E04AEE53E064E18AE00E94370E9B
:1003800021E049EF53E06DE28AE00E94370E809150
:100390000101805D89831A8223E0AE014F5F5F4FC8
:1003A00061E487E30E94370E21E045E054E06CE60B
:1003B0008AE00E94370E0E94320D0F900F90DF915D
:1003C000CF910F9108950F931F93CF93DF93CDB7E4
:1003D000DEB7A6970FB6F894DEBF0FBECDBF8FE095
:1003E0000E94070D00E021E04EEE54E065E086E15A
:1003F0000E94370E21E042E154E06DE28AE00E9463
:10040000370E21E043E254E061E48AE00E94370EB7
:100410000E94320D8BE097E00E94EE0F809316074A
:100420008FE00E94070D21E04EEE54E065E086E18A
:100430000E94370E80911607811123C021E042E10E
:1004400054E06DE28AE00E94370E21E043E254E07E
:1004500061E48AE00E94370E00E021E049E454E0C4
:100460006CE684E10E94370E0E94320DA6960FB60C
:10047000F894DEBF0FBECDBFDF91CF911F910F91DA
:10048000089560910B0770910C0780910D07909172
:100490000E07AE01415F5F4F0E94B90060910F07E8
:1004A000709110078091110790911207AE014F5F74
:1004B0005F4F0E94B90000E021E04FE254E06CE1A0
:1004C00084E10E94370E21E0AE01415F5F4F6CE195
:1004D00082E30E94370E21E045E354E060E384E1CB
:1004E0000E94370E21E0AE014F5F5F4F60E382E371
:1004F0000E94370E2091130730E00091140710E09E
:10050000E0911507F0E0C901079797FD48962AE0AA
:1005100030E0B9010E945517605D6D8F805D8E8F50
:100520004AE34F8FC801B9010E945517605D68A367
:10053000805D89A34AA3CF01B9010E945517605D70
:100540006BA3805D8CA31DA200E021E04BE354E08F
:1005500064E484E10E94370E21E0AE01435E5F4F08
:1005600064E482E30E94370E21E041E454E068E550
:1005700084E170CF8F929F92AF92BF92CF92DF9221
:10058000EF92FF920F931F93CF93DF93CDB7DEB718
:1005900062970FB6F894DEBF0FBECDBFD82E8FE0A6
:1005A0000E94070D00E021E040E654E065E08AE0AB
:1005B0000E94370E86E1F82E10E090E2E92E23E744
:1005C000C22E3CE6B32E4FE6A42E54E7952E6AE3E6
:1005D000862E8EE3D11280E28983EA82CB82BC82AE
:1005E000AD829E82EF8280E3810F88878986EA86CA
:1005F000812F0E94FB10EAE5F4E0811102C0E4E5DE
:10060000F4E02AE03191822F90E0311129C0E1E03D
:10061000F0E0EC0FFD1F8E0F9F1FDC011C9200E02D
:1006200021E0AF016F2D82E00E94370E1F5FB4E121
:10063000FB0E153071F60E94320D62960FB6F894DB
:10064000DEBF0FBECDBFDF91CF911F910F91FF9005
:10065000EF90DF90CF90BF90AF909F908F900895D4
:100660002F5F41E050E04C0F5D1F840F951FDC01B0
:100670003C93C8CFEF92FF920F931F93CF93DF93DA
:10068000CDB7DEB7E4970FB6F894DEBF0FBECDBF8F
:10069000182F0E944511F82E8FE00E94070D00E0F0
:1006A00021E04BE255E065E084E10E94370E21E055
:1006B0004DE754E062E3FF2009F48AC0E12C00E03A
:1006C0008E2D0E94FB1081110F5FE3941E15C0F761
:1006D00062E774E0E0E0DB012D91BD018E2F90E038
:1006E000EF5F211187C021E030E02C0F3D1F820F0A
:1006F000931F005DDC010C936DE674E0DB012D912E
:10070000BD018E2F90E0EF5F21117DC0A1E0B0E030
:10071000AC0FBD1FA80FB91F80E38F0D8C9321E094
:1007200030E02C0F3D1F2E0F311DF901108200E02B
:1007300021E0AE014F5F5F4F62E185E00E94370E1E
:10074000BE01635D7F4F812F0E945A116DA57EA56A
:100750008FA598A9AE014F5D5F4F0E94B90069A9AE
:100760007AA98BA99CA9AE014B5E5F4F0E94B9008C
:1007700021E04AE854E064E282E00E94370E21E082
:10078000AE014F5D5F4F64E280E20E94370E21E0D0
:100790004FE854E064E382E00E94370E21E0AE01AE
:1007A0004B5E5F4F64E380E20E94370E21E044E934
:1007B00054E068E48AE00E94370E21E042EA54E007
:1007C00068E58AE00E94370E21E049E454E068E6DB
:1007D0008AE00E94370E0E94320DE4960FB6F8941C
:1007E000DEBF0FBECDBFDF91CF911F910F91FF9064
:1007F000EF90089541E050E04C0F5D1F840F951F6E
:10080000DC012C9368CF41E050E04C0F5D1F840F5A
:10081000951FDC012C9372CF1F920F920FB60F928F
:1008200011240F900FBE0F901F90189590932507DD
:1008300080932407089580912407909125070895B7
:100840000E94920D0E945E0E0E94E20F0E94BB1059
:100850000E94DD120E94BE100C94DC1281E090E038
:10086000909325078093240708958F929F92AF92CB
:10087000BF92CF92DF92EF92FF920F931F93CF938D
:10088000DF93CDB7DEB7EA970FB6F894DEBF0FBEA1
:10089000CDBFE0912407F0912507E631F10508F07E
:1008A000BEC08C01EA5AFB4F0C948B176C04760483
:1008B0005C050E063A06AE067406EB065007750791
:1008C0009107C507F907E4042D086008B608F40885
:1008D0006C09190A3B0A980A0E942004109220070A
:1008E0008FEF80930201109221076EC00E94AB002F
:1008F000811107C09091200780910201981709F497
:100900005FC08FE00E94070D00E021E049E355E061
:1009100065E082E20E94370E8091200741EC54E0AE
:10092000882311F040ED54E000E021E06CE184E127
:100930000E94370E809120074FED54E0813011F076
:100940004CEE54E000E021E06EE284E10E94370EBC
:100950008091200749EF54E0823011F049E055E0E2
:1009600000E021E060E484E10E94370E80912007DE
:1009700049E155E0833011F049E255E000E021E023
:1009800062E584E10E94370E21E04EE355E069E61E
:1009900084E10E94370E21E04EE455E064E78EE1E9
:1009A0000E94370E0E94320D8091240790912507F6
:1009B0009093230780932207809120078093020160
:1009C0000E94BC10882319F081E090E00EC080E006
:1009D0000E94200F882371F083E080930001109221
:1009E0001C0710921B0786E090E0909325078093E8
:1009F000240715C085E00E94200F882319F08FE09E
:100A000090E0F3CF82E00E94200F182F8823E1F0BE
:100A1000809120078823B1F0815080932007EA96C7
:100A20000FB6F894DEBF0FBECDBFDF91CF911F91FF
:100A30000F91FF90EF90DF90CF90BF90AF909F907D
:100A40008F90089583E0E9CF81E00E94200F8823F2
:100A500049F080912007833010F411E0180F1093B3
:100A60002007DDCF83E00E94200F8823C1F2809110
:100A70002007813099F048F08230C9F0833079F650
:100A800010921F0784E190E0B0CF80ED97E0909343
:100A90001A078093190782E090E0A7CF88EE93E0D1
:100AA000909318078093170783E090E09ECF1092F1
:100AB000FE0680E190E099CF8091190790911A0786
:100AC000080F191F10931A07009319070E94AB0013
:100AD000811104C0003D174008F490C00E94ED123F
:100AE0007C010E941F13182F0E947313482FC70107
:100AF00068EE73E00E944117605D69832EE22A83ED
:100B000024E630E0B9010E944117605D6B83C701A4
:100B1000B9010E9441176AE070E00E944117605DD0
:100B20006C8386E78D831E82812F64E60E943517D1
:100B3000805D898B2AE0892F622F0E943517805DA6
:100B40008A8B812F0E943517905D9B8B1C8A4423D2
:100B500009F45EC08CE68D8F8FE68E8F87E78F8FCE
:100B600018A28FE00E94070D00E021E042ED54E062
:100B700065E086E10E94370E21E04CE555E06EE12C
:100B800084E10E94370E21E0AE014F5F5F4F6EE1BE
:100B90008AE40E94370E21E046E655E062E384E1F4
:100BA0000E94370E21E0AE014F5E5F4F62E38AE4A0
:100BB0000E94370E21E040E755E066E484E10E94A0
:100BC000370E21E0AE01435E5F4F66E484E40E948D
:100BD000370E21E049E454E069E684E10E94370ED3
:100BE0000E94320D8091240790912507909323074E
:100BF0008093220710921A071092190784E00E942E
:100C0000200F8111E1CE0E94200F8111E5CE07CF88
:100C10008FE68D8F8BE68E8F1F8EA3CF0E94AB0049
:100C2000882371F00E94E3018091240790912507A9
:100C300090932307809322071092180710921707AA
:100C4000809116078111DACF8091170790911807CC
:100C5000080F191F083E33E0130728F410931807F4
:100C600000931707CBCF10921807109217070E9416
:100C7000E301C4CF0E94AB00882319F18FE00E94EA
:100C8000070D00E021E049E755E069E18AE00E94B4
:100C9000370E21E047E855E062E38AE00E94370E14
:100CA00021E045E054E06BE48AE00E94370E0E94A8
:100CB000320D80912407909125079093230780930C
:100CC000220783E00E94200F882309F47DC081E081
:100CD0008093210783E08093010110921E071092F8
:100CE0001D0785E090E081CE80911B0790911C0745
:100CF000080F191F10931C0700931B070E94AB00DD
:100D0000882351F00E947B01809124079091250750
:100D1000909323078093220780E00E94180F882376
:100D200009F452CE80911B0790911C07883E934096
:100D300008F475CE10921C0710921B0780910001D9
:100D4000882329F08150809300010E947B018091CB
:100D50000001811164CE84E090E047CE80911D07B0
:100D600090911E07080F191F10931E0700931D076F
:100D70000E94AB00882351F00E94AF0180912407AC
:100D800090912507909323078093220780911D0758
:100D900090911E07883E9340B8F010921E07109263
:100DA0001D0780910101882329F081508093010162
:100DB0000E94AF0180910101811106C087E090E09F
:100DC000909325078093240784E00E94200F8823B6
:100DD00009F425CE88CD0E94AB008823A9F387E0D3
:100DE00090E0909323078093220780E389838A838E
:100DF00083E78B831C828FE00E94070D00E021E0D7
:100E00004BE955E069E18AE00E94370E21E04CEAA7
:100E100055E06DE28AE00E94370E21E0AE014F5F9F
:100E20005F4F6DE280E40E94370E21E046EB55E013
:100E300061E48AE00E94370E21E045E054E065E578
:100E40008AE00E94370E0E94320D8BE097E00E94EC
:100E5000EE0F80931607882339F0809121078823AD
:100E600019F088E090E0C1CD8FE00E94070D00E00E
:100E700021E043EC55E063E28AE00E94370E21E076
:100E80004FEC55E067E38AE00E94370E21E049E429
:100E900054E06BE48AE00E94370E0E94320D94CF3A
:100EA0000E94AB008823E1F08FE00E94070D00E074
:100EB00021E04BED55E068E28AE00E94370E21E028
:100EC00046EE55E06CE38AE00E94370E0E94320D38
:100ED0008091240790912507909323078093220700
:100EE0001092FA0689E090E080CD0E94AB00882342
:100EF000A9F08FE00E94070D00E021E044EF55E0EB
:100F000062E38AE00E94370E0E94320D809124072E
:100F10009091250790932307809322078AE090E021
:100F200064CD0E94AB008823E1F08FE00E94070DA2
:100F300000E021E046E056E068E28AE00E94370ED9
:100F400021E043E254E06CE38AE00E94370E0E9405
:100F5000320D809124079091250790932307809369
:100F6000220780918527882319F08BE090E03DCD02
:100F70008091FA06833020F48F5F8093FA06CECFFB
:100F80001092FA068CE090E030CD0E94AB008823EE
:100F900009F41ACD109221078FE00E94070D00E09E
:100FA00021E045E156E063E28AE00E94370E21E04D
:100FB0004FE156E067E38AE00E94370E21E04FE2FE
:100FC00056E06BE48AE00E94370E0E94320D809159
:100FD00024079091250790932307809322078FEF92
:100FE0009FE7A3E481509040A040E1F700C00000DB
:100FF000EBCC0E94AB00882329F1109221078FE0EF
:101000000E94070D00E021E048E356E063E28AE039
:101010000E94370E21E045E456E067E38AE00E9433
:10102000370E21E045E054E06BE48AE00E94370E81
:101030000E94320D809124079091250790932307F9
:101040008093220780E00E94200F8111C5CC84E0AC
:101050000E94200F8111B8CCE2CC0E94AB00882303
:1010600061F18FE00E94070D00E021E040E556E0CD
:101070006EE182E20E94370E21E047E556E062E32E
:1010800088E20E94370E21E04EE556E06BE48AE0EC
:101090000E94370E0E94320D8091240790912507FF
:1010A0009093230780932207BFEFEFE7F3E4B1505B
:1010B000E040F040E1F700C000000E94200413CCA3
:1010C0008FE00E94070D00E021E04CE656E068E268
:1010D0008CE10E94370E21E045E756E06CE388E2A0
:1010E0000E94370E0E94320D2FEF3FEF4CE221504D
:1010F00030404040E1F700C0000080E00E94070D52
:101100000E94320D83B7817F846083BF83B7816083
:1011100083BFF89481E280936B0011E01093680024
:101120007894889583B78E7F83BF10926800109261
:101130006B005FEF8FE191E0515080409040E1F70C
:1011400000C000000E942004109223071092220782
:10115000109220078FEF80930201109221070099CF
:1011600033CC1093210787E090E03FCC0E94AB0086
:10117000882361F08091FE060E94BA0280912407C4
:1011800090912507909323078093220782E00E9485
:10119000200F882359F08091FE06882309F43FCC64
:1011A00081508093FE060E94BA0239CC81E00E94F1
:1011B000200F882339F08091FE06843008F02FCC70
:1011C0008F5FEFCF83E00E94200F882309F43FCF89
:1011D0008091FE060E94FB10882319F081E190E0C7
:1011E00004CC82E190E001CC0E94AB00882309F49A
:1011F00053C08FE00E94070DABEBB4E080E09D91FF
:10120000282F30E061E0680F911152C041E050E0BA
:101210004C0F5D1F240F351F9091FE06905DD90184
:101220009C938E5FFA01E60FF11D90E29083E2EB52
:10123000F4E09191282F30E0911144C0E1E0F0E01A
:10124000EC0FFD1F2E0F3F1FD9011C9200E021E083
:10125000AF0164E185E00E94370E21E04DE756E0E2
:101260006DE284E10E94370E21E048E856E066E432
:101270008AE00E94370E21E043E956E067E58AE004
:101280000E94370E0E94320D80912407909125070D
:10129000909323078093220783E00E94200F8111FF
:1012A000A0CF84E00E94200F882309F4B8CB01CCA2
:1012B000E1E0F0E0EC0FFD1F2E0F3F1FF9019083DE
:1012C000862F9DCF8F5F41E050E04C0F5D1F240FB4
:1012D000351FD9019C93ADCF0E94AB00882309F440
:1012E00079C08FE00E94070D00E021E04BE055E05F
:1012F00065E08AE00E94370E21E04CE956E063E2A7
:101300008AE00E94370E0E94320D80E097E00E9432
:10131000EE0F8093FF068FE00E94070D21E04BE067
:1013200055E065E08AE00E94370E8091FF06882331
:1013300009F472C060910007709101078091020763
:1013400090910307AE014F5E5F4F0E94B90060911C
:101350000407709105078091060790910707AE0179
:101360004F5F5F4F0E94B90021E04AE854E06CE112
:1013700082E00E94370E21E0AE014F5E5F4F6CE1CC
:1013800086E20E94370E21E04FE854E06BE282E0F3
:101390000E94370E21E0AE014F5F5F4F6BE286E2A5
:1013A0000E94370E21E04BEA56E061E48AE00E9499
:1013B000370E21E045E054E060E58AE00E94370EF8
:1013C0000E94320D80912407909125079093230766
:1013D000809322078091FF06882309F438CE83E0AA
:1013E0000E94200F882309F432CE00910407109147
:1013F000050720910607309107074091000750919B
:10140000010760910207709103078091FE060E9418
:101410000B1183E190E0E9CA00E021E04AEB56E0DD
:1014200068E28AE00E94370E21E045E054E061E482
:10143000C4CF0E94AB00882309F4C6CA8FE00E9483
:10144000070D00E021E045EC56E062E38AE00E94EF
:10145000370E0E94320D80912407909125079093BA
:10146000230780932207BFEFEFEBF1E2B150E0409A
:10147000F040E1F7BBCD0E94AB008823B1F01092A1
:101480001F0710E0812F0E94FB108823B1F11093F9
:101490001F0780911F070E943A03809124079091B3
:1014A0002507909323078093220782E00E94200F54
:1014B00010911F07811125C081E00E94200F10911B
:1014C0001F07811131C083E00E94200F882309F497
:1014D000BECD80911F070E94FB10882309F49FCA8C
:1014E00080911F078093FB0680E69AEE9093FD069D
:1014F0008093FC0685E190E078CA1F5F153011F6F5
:10150000C8CF115017FD8BCA812F0E94FB10882372
:10151000C1F310931F07812F0E943A0380CA812FC5
:101520000E94FB108111F5CF1F5F1530C0F377CA01
:101530000E94AB00882331F085E190E0909323076F
:10154000809322078091FC069091FD06080F191FD9
:1015500000362AEE120750F41093FD060093FC06A5
:1015600084E00E94200F81118DCA59CA1092FD0695
:101570001092FC06CE014D960E94EE0F182F8FE0C0
:101580000E94070D1CAA1DAA1EAA8091FB06805D61
:101590008CAB00E021E042E754E065E082E00E948D
:1015A000370E21E0AE014C5C5F4F65E08EE30E9498
:1015B000370E112309F4AEC1BE01685D7F4F8091E3
:1015C000FB060E945A11ACA4BDA4CEA4DFA4E8A4DB
:1015D000F9A40AA51BA529A13AA14BA15CA16D8D77
:1015E0007E8D8F8D98A1FE01F796FF93EF93329633
:1015F000FF93EF93DE01D0964D010E9474110F907E
:101600000F900F900F9088A999A9AAA9BBA94E97EE
:10161000A105B10598F400E021E045ED56E062E354
:1016200084E10E94370E00E021E049E454E064E6E2
:1016300082E00E94370E0E94320D92CF29AD3AAD62
:101640002436310508F4D3C0C90164E670E00E9475
:101650004117605D698B01E0E1E0E00F41E150E09E
:101660004C0F5D1F400F511D8A01C90164E670E0F7
:101670000E9441176AE070E00E944117605DD80146
:101680006C9301E110E00C0F1D1F0E0F111DC9011D
:101690006AE070E00E944117805DD8018C93A1E060
:1016A000AE0F21E130E02C0F3D1F2A0F311DD90173
:1016B00080E28C93A2E0AE0F41E150E04C0F5D1F41
:1016C0004A0F511DDA0194E69C93A3E0AE0F21E18D
:1016D00030E02C0F3D1F2A0F311DD90195E69C9358
:1016E000A4E0AE0F41E150E04C0F5D1F4A0F511DC9
:1016F000DA0197E69C9326E02E0FEB5FA1E1B0E0C4
:10170000AC0FBD1FAE0FB11DFD018083EFA9F8AD79
:101710003191822F90E0311171C0E1E1F0E0EC0FE6
:10172000FD1F8E0F9F1FDC011C9200E021E0AF0126
:101730006CE182E00E94370E68A979A98AA99BA969
:10174000683C71058105910508F069C09B0164360C
:10175000710508F45DC081E3898301E0E1E0E00FF9
:1017600041E050E04C0F5D1F400F511D8A01C9013F
:1017700064E670E00E9441176AE070E00E94411741
:10178000605DD8016C9301E010E00C0F1D1F0E0F7F
:10179000111DC9016AE070E00E944117805DD80107
:1017A0008C93A1E0AE0F21E030E02C0F3D1F2A0FFB
:1017B000311DD90180E28C9383E08E0FEE5F41E012
:1017C00050E04C0F5D1F4E0F511DFA019DE69083B6
:1017D000E1E0F0E0EC0FFD1FE80FF11D108200E0EA
:1017E00021E0AE014F5F5F4F6EE282E01ACFE0E092
:1017F0002A30310508F445CF00E02ECF2F5F41E1BC
:1018000050E04C0F5D1F840F951FDC013C9380CF8F
:10181000E0E06A30710508F4B6CF00E09FCF28EE13
:1018200033E040E050E00E946917890124E630E08F
:1018300040E050E00E9469170436110508F463C0C7
:10184000C80164E670E00E944117605D698381E031
:10185000E1E0E80FEE24E394F12CEC0EFD1EE80E1F
:10186000F11CC80164E670E00E9441176AE070E074
:101870000E944117605DD7016C93EE24E394F12C34
:10188000EC0EFD1EEE0EF11CC8016AE070E00E9435
:101890004117805DD7018C93A1E0AE0F41E050E08D
:1018A0004C0F5D1F4A0F511DDA018EE28C93A2E0AE
:1018B000AE0F81E090E08C0F9D1F8A0F911DDC011F
:1018C000205D2C93A3E0AE0F21E030E02C0F3D1FF4
:1018D0002A0F311DD90180E28C93A4E0AE0F41E0C4
:1018E00050E04C0F5D1F4A0F511DDA018BE68C93BF
:1018F00086E08E0FEB5FA1E0B0E0AC0FBD1FAE0F36
:10190000B11DFD0163CFE0E00A30110508F4B5CF49
:1019100080E09ECF00E021E04AEB56E068E265CF30
:101920008093BB0084E88093BC008091BC0087FF5B
:10193000FCCF9091B900987F81E0983209F080E067
:10194000089584E98093BC008091BC0084FDFCCFA5
:10195000089584EA8093BC008091BC0087FFFCCF8F
:101960008AE78093BB0084E88093BC008091BC0030
:1019700087FFFCCF9091B900987F81E0983109F002
:1019800080E00895EF92FF920F931F93CF93DF9320
:10199000182FE92E062F0E94A90C882381F080E0E1
:1019A0000E94900C882341F0F12EC12FDE2D8991E9
:1019B0000E94900C81110AC00E94A10C80E0DF916E
:1019C000CF911F910F91FF90EF9008958C2F8F1959
:1019D000801768F30E94A10C81E0F1CFCF93C82F4C
:1019E0000E94A90C882341F080E80E94900C81118C
:1019F00005C00E94A10C80E0CF9108958C2F0E9419
:101A0000900C8823B1F30E94A10C81E0F5CF8F7078
:101A100090E1899F90011124822BE6E2F7E0819307
:101A200097E2E632F907D9F7089587FD18C067FDF8
:101A300016C04F7090E4699FB0011124E82FE6951D
:101A4000E60FF72FF11DEA5DF84F908180FD08C089
:101A50009F7080E1489FA0011124942B90830895EA
:101A6000907FFBCF9F92AF92BF92CF92DF92EF9287
:101A7000FF920F931F93CF93DF9300D000D000D03D
:101A8000CDB7DEB786E0E3E0F1E0DE01119601902C
:101A90000D928A95E1F766E0CE0101960E94C20C94
:101AA00086E2A82E87E0B82E86E2A81687E2B8065E
:101AB00091F426960FB6F894DEBF0FBECDBFDF912E
:101AC000CF911F910F91FF90EF90DF90CF90BF903B
:101AD000AF909F900895750110E4012F113108F027
:101AE00000E10E94A90C882349F080E40E94900C38
:101AF0009E2C670181110AC00E94A10CE00EF11C0E
:101B0000101B59F7F0E4AF0EB11CCECFF601819156
:101B10006F010E94900C882379F38C2D891980170E
:101B2000A8F3EACF87B18C7F87B988B1836088B981
:101B30001092B9008CE18093B80084E08093BC00DF
:101B4000569A5E9A8FEF97E40197F1F700C0000074
:101B50005E988FEF9FE80197F1F700C000005E9A52
:101B60008FEF9FE80197F1F700C000006EE189E078
:101B700091E00E94C20C9FEF2FE382E09150204041
:101B80008040E1F700C000008FEA0E94EE0C81E87F
:101B90000E94EE0C8FE20E94EE0C80E00E94070D86
:101BA0000C94320D3F924F925F926F927F928F9280
:101BB0009F92AF92BF92CF92DF92EF92FF920F93DC
:101BC0001F93CF93DF9347FD33C0D22F562EC22FE2
:101BD000C80F85E0480270011124D12CC12CF601F8
:101BE000EE0DFF1DE95DFE4F80804C2E4D1A1D2F1E
:101BF000150DB12CA12C912CC4010A2C02C0959575
:101C000087950A94E2F7312E3D1A742C80FD2BC083
:101C10008FEFA81AB80A1D0F87E0A816B10461F764
:101C20008FEFC81AD80ACD0F85E0C816D104B9F6CF
:101C3000DF91CF911F910F91FF90EF90DF90CF90A8
:101C4000BF90AF909F908F907F906F905F904F90DC
:101C50003F900895402F662D872D0E94150D6394A7
:101C60001611F8CF73947C1699F2632CF9CFCF92AA
:101C7000DF92EF92FF920F931F93CF93DF93D82FB2
:101C8000D62E122FC02EC22FCC0FC20FCC0F7A012E
:101C9000F70141917F01411109C0DF91CF911F915F
:101CA0000F91FF90EF90DF90CF9008950C2D212F92
:101CB0006D2D8D2F0E94D20DDC0FEACF81B1807C7B
:101CC00081B982B18F6382B9E6E2F7E210821182B4
:101CD0001282138214821682158210861782399618
:101CE00087E2EC35F80791F708958F929F92AF92B3
:101CF000BF92CF92DF92EF92FF92CF93DF939C013E
:101D0000E6E2F7E280E061E04EE150E0CC24CA94E4
:101D1000DC2CE12CF12CC21AD30AE108F108833043
:101D200009F45EC008F04CC0813009F47DC08230F7
:101D300009F450C090B190959170708171837917BA
:101D400091F0A581B681AE31B10560F4A20FB31F49
:101D5000AF31B10508F04DC0B683A583A581B6812A
:101D60005E9718F090831682158291817081EF0141
:101D70002996772309F440C0911104C0628310862C
:101D800017821482A781B0854D01B12CA12C8C142F
:101D90009D04AE04BF0424F4A20FB31FB087A78331
:101DA000811130C0E0912D27F0912E27E83BFB40B8
:101DB000C8F190912A27911135C060932A2722C03B
:101DC000843099F0853009F0B5CF90B195FB992713
:101DD00090F904C090B192FB992790F99627ADCF66
:101DE00090B193FB992790F9F9CF90B192959170AA
:101DF000F5CF56834583B2CF992321F063831086B4
:101E0000178214828F5FFE01863009F088CFDF9140
:101E1000CF91FF90EF90DF90CF90BF90AF909F90C9
:101E20008F900895FE0181E090B19695982784CF18
:101E300099E0899FF0011124EA5DF84D80810895B1
:101E400099E0899FF0011124EA5DF84D8281882391
:101E500011F0128281E0089599E0899FF001112428
:101E6000EA5DF84D8381882311F0138281E00895A3
:101E700099E0899FF0011124EA5DF84D87819085F2
:101E8000089580912A27882319F010922A2781E04B
:101E9000089580912627882369F020912D2730917D
:101EA0002E27283B8BE0380740F488EB9BE0821B11
:101EB000930B089588EB9BE0089590E080E00895EF
:101EC000CF93DF9330E0FC017191711102C0E0E02B
:101ED0001BC07C3219F43F5FCF01F5CF3613FCCF26
:101EE000DC012150330B01C09883EA2FE81B9D9140
:101EF0006E2F70E0EA01C60FD71F992329F09C329C
:101F000019F06217730784F3E40FF52FF11D1082A7
:101F1000DF91CF9108958F929F92AF92BF92CF920F
:101F2000DF92EF92FF92CF93DF93FC012081222377
:101F300009F444C0EB010E94AE174B015C0120E0A4
:101F400030E048EC52E40E9485140E94F7146B01C3
:101F500084E68C9DB0018D9D700D1124072E000C20
:101F6000880B990B0E942F159B01AC01C501B40190
:101F70000E949C1320E030E040E752E40E94851468
:101F80004B015C01B601DD0C880B990B0E942F15EB
:101F90009B01AC01C501B4010E949D1328812B7FD8
:101FA000233509F49058DF91CF91FF90EF90DF90A7
:101FB000CF90BF90AF909F908F90089560E070E0B9
:101FC000CB01F1CF1092C5008FE28093C40088E16D
:101FD0008093C10086E08093C20008950F931F9301
:101FE000CF93DF93CDB7DEB7CA57D1090FB6F894B8
:101FF000DEBF0FBECDBF8C018091C00087FFFCCF3C
:102000008091C6008432C1F78983DE011296E1E037
:102010008091C00087FFFCCF8091C6008A3021F0FC
:10202000EF5F8D93E135A1F781E090E08C0F9D1F6C
:102030008E0F911DFC01108246E050E06EED76E0BF
:10204000CE0101960E94B217892B51F046E050E074
:1020500065EE76E0CE0101960E94B217892B61F6FB
:102060002CE0AE0145595F4F62E0CE0101960E941F
:10207000600FAC968FADAC97813409F07AC02CE03C
:10208000AE01415A5F4F63E0CE0101960E94600F9E
:1020900022E0AE0147585F4F64E0CE0101960E94F6
:1020A000600FBE0167587F4FCE01815A9F4F0E943B
:1020B0008B0FF80160837183828393832CE0AE01E0
:1020C0004D5A5F4F65E0CE0101960E94600F22E0FD
:1020D000AE0149585F4F66E0CE0101960E94600F45
:1020E000BE0169587F4FCE018D5A9F4F0E948B0FC2
:1020F000F80164837583868397832CE0AE0145598C
:102100005F4F61E0CE0101960E94600FAC962FAD4B
:10211000AC9720539AE0AD968FADAD978053299F31
:10212000800D1124F8018087AE962FADAE97205315
:10213000AF968FADAF978053299F800D1124818773
:10214000E0962FADE0972053E1968FADE197805355
:10215000299F800D1124828781E0C658DF4F0FB67A
:10216000F894DEBF0FBECDBFDF91CF911F910F91CD
:10217000089580E0F2CF08950C947313CF93DF930A
:1021800090E080E00E947D13863A71F010928427DF
:1021900066EA90E080E00E947B1360E081E090E0DE
:1021A000DF91CF910C947B1381E090E00E947D132E
:1021B00080938427D0E0C0E08091842790E00C2EAB
:1021C00002C0959587950A94E2F780FF0DC0CE0175
:1021D00023E0880F991F2A95E1F7BC01645A784DD6
:1021E00048E002960E9485132196C530D10521F75B
:1021F000DF91CF910895853060F42091842730E0FD
:10220000A90102C0559547958A95E2F7CA018170E8
:10221000089580E00895CF92DF92EF92FF920F939E
:102220001F93CF93853078F56A017B01C82F48E072
:10223000849FC0011124BC01645A784DFB01C08207
:10224000D182E282F382048315832683378348E0B8
:1022500002960E947F1381E090E001C0880FCA952A
:10226000EAF760918427682B6093842781E090E0EF
:102270000E947B1381E0CF911F910F91FF90EF900F
:10228000DF90CF90089580E0F6CF4091842750E012
:1022900030E020E080E0BA01022E02C0759567951B
:1022A0000A94E2F760FD8F5F2F5F3F4F25303105C5
:1022B00091F708950F931F93CF93C82F8B010E941E
:1022C000FB10882369F088E0C89FF0011124E45ACC
:1022D000F84D88E0D80101900D928A95E1F781E0F0
:1022E000CF911F910F9108954F925F926F927F92BD
:1022F0008F929F92AF92BF92CF92DF92EF92FF9216
:102300000F931F93CF93DF93CDB7DEB764970FB6CC
:10231000F894DEBF0FBECDBF69837A838B839C8325
:102320002D833E834F83588727013801840125E39D
:102330003AEF4EE85CE30E944D1669877A878B87F7
:102340009C8725E33AEF4EE85CE3C301B7010E94A6
:102350004D166D877E878F87988B2D813E814F81AB
:102360005885C601B5010E949C1325E33AEF4EE85B
:102370005CE30E944D166B017C0129813A814B81FF
:102380005C81C301B2010E949C1325E33AEF4EE841
:102390005CE30E944D1620E030E040E05FE30E94E5
:1023A0004D160E94BA162B013C0169857A858B85F2
:1023B0009C850E9480146D837E838F8398876D85B2
:1023C0007E858F8598890E94801469837A838B83A8
:1023D0009C8320E030E040E05FE3C701B6010E944B
:1023E0004D160E94BA164B015C0129813A814B813E
:1023F0005C816D817E818F8198850E944D16A5013B
:1024000094010E944D16A50194010E944D164B01A6
:102410005C01A3019201C301B2010E944D169B0110
:10242000AC01C501B4010E949D134B015C01AC01DC
:102430009B0160E070E080E89FE30E949C130E9493
:10244000C8162B013C01C501B4010E94C816A301A6
:1024500092010E941C1420E73DE642E45BE40E94E6
:102460004D1620E030E040E05FE30E949D130E94A3
:10247000FE14F8016083718382839383C701B601E0
:102480000E94BA16698B7A8B8B8B9C8B6D857E85AF
:102490008F8598890E94BA162B013C0169857A853F
:1024A0008B859C850E94BA164B015C01C701B60161
:1024B0000E9480146B017C01A30192016D817E81D9
:1024C0008F8198850E944D162B013C01A501940136
:1024D00069817A818B819C810E944D16A7019601AA
:1024E0000E944D169B01AC01C301B2010E949C13D6
:1024F0006B017C0129893A894B895C8969817A81E0
:102500008B819C810E944D16A70196010E941C148C
:1025100020EE3EE245E652E40E944D166B017C013E
:1025200020E030E0A9010E947B1487FF0AC020E070
:1025300030E044EB53E4C701B6010E949D136B01E8
:102540007C01C701B6010E94FE14EFA1F8A57183BA
:10255000608320E030E044EB51E4C701B6010E9403
:102560009D130E94FE14CB016DE270E00E944117A2
:10257000FB01E770FF27EE0FFF1FE955FC4F80813D
:102580009181E9A5FAA59183808364960FB6F894AA
:10259000DEBF0FBECDBFDF91CF911F910F91FF9096
:1025A000EF90DF90CF90BF90AF909F908F907F90F3
:1025B0006F905F904F900895089586E480937C001B
:1025C00087E880937A0080917A00806480937A0013
:1025D00080917A0086FDFCCF08950F931F9384E0CD
:1025E00000E010E0980190917A00906490937A0056
:1025F00090917A0096FDFCCF6091780070917900FF
:10260000060F171F211D311D815069F7A90198017F
:1026100082E056954795379527958A95D1F74427B7
:102620005527A8E8B3E10E9494172FEF33E040E06C
:1026300050E00E946917C9011F910F9108950E94EF
:10264000ED1264E6883620E19207B8F460E08F3B33
:102650002AE0920790F0803A2FE0920780F044E160
:10266000489F9001499F300D1124C901805898431B
:1026700068EC70E00E944117605B862F08958437F4
:102680002EE0920778F04EE1489F9001499F300D6F
:102690001124C9018859914B6CE271E00E944117E5
:1026A0006E5CEBCF88342DE0920778F04EE1489FC6
:1026B0009001499F300D1124C90180579E486CE25A
:1026C00071E00E9441176C5ED8CF44E1489F9001B1
:1026D000499F300D1124C901885D964D6AE872E06A
:1026E0000E944117CACF0E941F1391E08B3008F05F
:1026F00090E0892F08950C946A190C9452199C014A
:10270000CB0150E0B9010C945A199C01CB0150E067
:10271000B9010C9442190E9420048AE090E00E94C2
:10272000750E8AE090E00E9435048FEF97E40197E0
:10273000F1F700C00000F1CF5058BB27AA270E9434
:10274000B4130C94F7150E94BE1538F00E94C515FD
:1027500020F039F49F3F19F426F40C9494150EF4EC
:10276000E095E7FB0C948E15E92F0E941C1658F398
:10277000BA17620773078407950720F079F4A6F566
:102780000C943E160EF4E0950B2EBA2FA02D0B01E3
:10279000B90190010C01CA01A0011124FF27591BA6
:1027A00099F0593F50F4503E68F11A16F040A22FAC
:1027B000232F342F4427585FF3CF4695379527951D
:1027C000A795F0405395C9F77EF41F16BA0B620B1C
:1027D000730B840BBAF09150A1F0FF0FBB1F661F63
:1027E000771F881FC2F70EC0BA0F621F731F841FA6
:1027F00048F4879577956795B795F7959E3F08F0CC
:10280000B0CF9395880F08F09927EE0F979587958D
:1028100008950E94BE1560F080E891E009F49EEFF3
:102820000E94C51528F040E851E071F45EEF0CC03D
:102830000C9494150C943E16E92FE0780E941C1617
:1028400040F3092E052AB1F3261737074807590721
:1028500038F00E2E07F8E02569F0E025E0640AC0A4
:10286000EF6307F8009407FADB01B9019D01DC0171
:10287000CA01AD01EF930E949C140E94F7150E94BB
:102880004C145F91552339F02BED3FE049E450FDA6
:1028900049EC0C949D130895DF93DD27B92FBF7782
:1028A00040E85FE31616170648075B0718F4D92FB0
:1028B0000E9445169F938F937F936F930E940817F2
:1028C000ECE8F0E00E9497150E94F7152F913F91D8
:1028D0004F915F910E946016DD2351F09058A2EA5B
:1028E0002AED3FE049EC5FE3D0785D270E94B41306
:1028F000DF910C94F7150E946A1508F481E00895A1
:102900000E94CE15E3950C9408160E9499140C941D
:10291000F7150E94C51558F00E94BE1540F029F425
:102920005F3F29F00C948E1551110C943F160C94B6
:1029300094150E941C1668F39923B1F3552391F363
:10294000951B550BBB27AA2762177307840738F01E
:102950009F5F5F4F220F331F441FAA1FA9F335D07B
:102960000E2E3AF0E0E832D091505040E695001C2F
:10297000CAF72BD0FE2F29D0660F771F881FBB1FE9
:10298000261737074807AB07B0E809F0BB0B802DC7
:10299000BF01FF2793585F4F3AF09E3F510578F0F3
:1029A0000C948E150C943F165F3FE4F3983ED4F3DD
:1029B000869577956795B795F7959F5FC9F7880FC7
:1029C000911D9695879597F90895E1E0660F771F19
:1029D000881FBB1F621773078407BA0720F0621BAA
:1029E000730B840BBA0BEE1F88F7E09508950E94D5
:1029F000FE146894B1110C943F1608950E94241699
:102A000088F09F5798F0B92F9927B751B0F0E1F0AF
:102A1000660F771F881F991F1AF0BA95C9F714C05F
:102A2000B13091F00E943E16B1E008950C943E162C
:102A3000672F782F8827B85F39F0B93FCCF3869598
:102A400077956795B395D9F73EF4909580957095F5
:102A500061957F4F8F4F9F4F0895E89409C097FB72
:102A60003EF490958095709561957F4F8F4F9F4F65
:102A70009923A9F0F92F96E9BB279395F6958795A9
:102A800077956795B795F111F8CFFAF4BB0F11F46C
:102A900060FF1BC06F5F7F4F8F4F9F4F16C0882313
:102AA00011F096E911C0772321F09EE8872F762F49
:102AB00005C0662371F096E8862F70E060E02AF08A
:102AC0009A95660F771F881FDAF7880F9695879576
:102AD00097F90895990F0008550FAA0BE0E8FEEF4B
:102AE00016161706E807F907C0F012161306E407D2
:102AF000F50798F0621B730B840B950B39F40A26CB
:102B000061F0232B242B252B21F408950A2609F4A8
:102B1000A140A6958FEF811D811D089597F99F67AC
:102B200080E870E060E008959FEF80EC0895DF9307
:102B3000CF931F930F93FF92EF92DF927B018C0153
:102B4000689406C0DA2EEF010E946016FE01E89438
:102B5000A5912591359145915591A6F3EF010E94DC
:102B6000B413FE019701A801DA9469F7DF90EF90A2
:102B7000FF900F911F91CF91DF91089500240A9447
:102B80001616170618060906089500240A94121648
:102B900013061406050608950C9494150E94241635
:102BA000D8F3E894E0E0BB279F57F0F02AED3FE030
:102BB00049EC06C0EE0FBB0F661F771F881F28F079
:102BC000B23A62077307840728F0B25A620B730B9C
:102BD000840BE3959A9572F7803830F49A95BB0F81
:102BE000661F771F881FD2F790480C940E17092E86
:102BF0000394000C11F4882352F0BB0F40F4BF2B58
:102C000011F460FF04C06F5F7F4F8F4F9F4F089597
:102C1000EF93E0FF07C0A2EA2AED3FE049EC5FEB4B
:102C20000E94B4130E94F7150F90039401FC905872
:102C3000E9EBF0E00C94211757FD9058440F551F15
:102C400059F05F3F71F04795880F97FB991F61F02E
:102C50009F3F79F087950895121613061406551FA5
:102C6000F2CF4695F1DF08C0161617061806991F11
:102C7000F1CF86957105610508940895E894BB2706
:102C800066277727CB0197F908959B01AC0160E097
:102C900070E080E89FE30C9485140E9460160C9409
:102CA000F7150E94BE1538F00E94C51520F0952337
:102CB00011F00C948E150C94941511240C943F165D
:102CC0000E941C1670F3959FC1F3950F50E0551F9D
:102CD000629FF001729FBB27F00DB11D639FAA2771
:102CE000F00DB11DAA1F649F6627B00DA11D661FC0
:102CF000829F2227B00DA11D621F739FB00DA11DE1
:102D0000621F839FA00D611D221F749F3327A00D9A
:102D1000611D231F849F600D211D822F762F6A2F36
:102D200011249F5750409AF0F1F088234AF0EE0F9B
:102D3000FF1FBB1F661F771F881F91505040A9F7C8
:102D40009E3F510580F00C948E150C943F165F3F0A
:102D5000E4F3983ED4F3869577956795B795F79504
:102D6000E7959F5FC1F7FE2B880F911D969587957C
:102D700097F908959F930E94CE150F9007FCEE5F80
:102D80000C94081619F416F40C9494150C940C1762
:102D90000E942416B8F39923C9F3B6F39F57550B35
:102DA00087FF0E941A170024A0E640EA900180588D
:102DB0005695979528F4805C660F771F881F20F042
:102DC00026173707480730F4621B730B840B202942
:102DD00031294A2BA69517940794202531254A2797
:102DE00058F7660F771F881F20F026173707480708
:102DF00030F4620B730B840B200D311D411DA09527
:102E000081F7B901842F9158880F96958795089579
:102E10009B01AC010C944D169F3F31F0915020F472
:102E2000879577956795B795880F911D96958795A6
:102E300097F9089591505040660F771F881FD2F779
:102E400008959F938F937F936F93FF93EF939B01CD
:102E5000AC010E944D16EF91FF910E9497152F91A2
:102E60003F914F915F910C944D16991B79E004C0EE
:102E7000991F961708F0961B881F7A95C9F78095B9
:102E80000895AA1BBB1B51E107C0AA1FBB1FA617B1
:102E9000B70710F0A61BB70B881F991F5A95A9F703
:102EA00080959095BC01CD01089597FB072E16F4EF
:102EB000009407D077FD09D00E94411707FC05D088
:102EC0003EF4909581959F4F0895709561957F4F41
:102ED0000895A1E21A2EAA1BBB1BFD010DC0AA1F5B
:102EE000BB1FEE1FFF1FA217B307E407F50720F073
:102EF000A21BB30BE40BF50B661F771F881F991FEE
:102F00001A9469F760957095809590959B01AC0136
:102F1000BD01CF010895EE0FFF1F0024001C0BBE62
:102F20000790F691E02D09940E949F17A59F900DA0
:102F3000B49F900DA49F800D911D11240895A29F10
:102F4000B001B39FC001A39F700D811D1124911D7D
:102F5000B29F700D811D1124911D0895662777275A
:102F60000C94C017FB01DC014150504030F08D91B2
:102F70000190801919F40020B9F7881B990B089566
:102F80008F929F92AF92BF92CF92DF92EF92FF9279
:102F90000F931F93CF93DF935C017B016115710544
:102FA00019F0DB018D939C9385010F5F1F4FF50195
:102FB000D0818D2F90E00E941E196C01892BB9F5EC
:102FC000DD32B9F50F5F1F4FD5011196DC91C1E0DD
:102FD0005801F1E0AF1AB10843E050E060EE70E054
:102FE000C5010E942719892B69F5680182E0C80E86
:102FF000D11C45E050E06BED70E0C6010E9427193E
:10300000892B21F4680197E0C90ED11CE114F10469
:1030100019F0D701CD92DC9260E070E080E89FEF7C
:10302000C111FFC060E070E080E89FE7FAC058017E
:10303000BBCFDB3229F485010E5F1F4FF501D18133
:10304000C0E0C6CF43E050E068ED70E0C5010E94EB
:103050002719892BE9F0F80110E000E020E030E0CA
:10306000A9015F01B0ED8B2E8D0E89E08815C8F1A6
:103070009C2E689491F88C2F8870C2FF16C0811125
:1030800002C00F5F1F4F3196D501DC91C92DE9CFEA
:10309000E114F10429F00E5F1F4FF7011183008343
:1030A00060E070E080EC9FE7BCC0882311F0015025
:1030B0001109A5E0B0E00E9494179B01AC01220F1A
:1030C000331F441F551F280D311D411D511D283927
:1030D00099E93907490799E15907A8F2C6609C2E7A
:1030E000D2CFAEEF8A1206C0C3FD3CC09C2E6894BE
:1030F00093F8C9CFDF7DD534A9F580818D3239F4BD
:10310000C061DF011296818162E070E006C0DF01DC
:103110008B32C1F3119661E070E080535D01A61A15
:10312000B70A8A30F8F4E0E8CE16ECE0DE065CF48C
:10313000B601660F771F660F771FC60ED71ECC0C21
:10314000DD1CC80ED11C5D01FFEFAF1ABF0A8C91C8
:1031500080538A30A8F1C4FF03C0D194C194D10830
:103160000C0D1D1DC1FF09C0E114F10431F081E017
:10317000A81AB108D701AD92BC92CA01B9010E9448
:103180002D15C370C33009F490584B015C0120E049
:1031900030E0A9010E947B14882309F440C0CFE0ED
:1031A000D1E017FF05C0119501951109C7EFD0E0D7
:1031B0006E01B8E1CB1AD10880E2E82EF12C0FC0E5
:1031C000D501B1CFFE0125913591459154910E194C
:1031D0001F09C501B4010E944D164B015C01D501C8
:1031E000C4010E151F0574F72497F594E794CC16C7
:1031F000DD06A9F78A2F880F8B2F881F8F3F49F094
:1032000020E030E0A901C501B4010E947B148111C6
:1032100006C082E290E09093872780938627C501BD
:10322000B401DF91CF911F910F91FF90EF90DF904C
:10323000CF90BF90AF909F908F90089591110C9474
:103240003F19803219F089508550C8F70895FB0165
:10325000DC014150504088F08D9181341CF08B3559
:103260000CF4805E659161341CF06B350CF4605E8B
:10327000861B611171F3990B0895881BFCCF992768
:1032800088270895DC01CB01FC01F999FECF06C027
:10329000F2BDE1BDF89A319600B40D924150504014
:1032A000B8F70895F999FECF92BD81BDF89A992794
:1032B00080B50895DC01A40FB51F4150504048F07F
:1032C000CB01840F951F2E910E946B1941505040E5
:1032D000D0F70895262FF999FECF92BD81BDF89AB7
:1032E000019700B4021639F01FBA20BD0FB6F8944A
:0C32F000FA9AF99A0FBE0895F894FFCFE7
:1032FC000303FF75007F15003FAE8180A051A10034
:10330C00A200A6A87FB111B300AB01B604BE0FBCDE
:10331C0008D562FD12A4AF00000000000000000000
:10332C000000000000000000000000000000000091
:10333C000000000000000000000000000000000081
:10334C000000000000000000000000000000000071
:10335C000000000000000000000000000000000061
:10336C000000000000000000000000000000000051
:10337C000000000000000000000000000000000041
:10338C000000000000000000000000000000000031
:10339C000000000000000000000000000000000021
:1033AC000000000000000000000000000000000011
:1033BC0000000000000000000000000000005F00A2
:1033CC0000000000000000000000000000000000F1
:1033DC0000000000000000000000000000000000E1
:1033EC0000000000000000000000000000000000D1
:1033FC0000000000000000000808080808006060D9
:10340C00000000000000003E5149453E00427F4054
:10341C000042615149462141454B311814127F102D
:10342C0027454545393C4A49493001710905033660
:10343C0049494936064949291E0036360000000024
:10344C00000000000000000000000000000041220D
:10345C001408000000000000000000000000000044
:10346C000000000000000000000000000000000050
:10347C000000000000000000000000000000000040
:10348C000000000000000000000000000000000030
:10349C000000000000000000000000000000000020
:1034AC000000000000000000000000000000000010
:1034BC000000000000000000000000000000000000
:1034CC0000000000000000000000000000000000F0
:1034DC0000000000000000000000000000000000E0
:1034EC0000000000000000000000000000000000D0
:1034FC0000000000000000000000000020545454A4
:10350C00787F484444383844444420384444487F05
:10351C003854545418087E0901020C5252523E7F02
:10352C000804047800447D40002040443D007F1096
:10353C0028440000417F40007C041804787C080477
:10354C00047838444444387C1414140808141418AF
:10355C007C7C080404084854545420043F44402004
:10356C003C4040207C1C2040201C3C4030403C44D3
:10357C00281028440C5050503C4464544C440000D7
:10358C00000000000000000000000000000000002F
:10359C0000000000000000EC06EE06D905F106C1A3
:1035AC0005F406F806F706736F7320627574746F72
:1035BC006E2068656C6400656E746572696E672058
:1035CC00736F7320696E3A0072656C656173652068
:1035DC00746F2063616E63656C00736F7320636F2F
:1035EC006E6669726D6564210073656E64696E67E1
:1035FC0020696E3A006C6566743A2063616E63658F
:10360C006C00616371756972696E67206669782EEA
:10361C002E2E00706C656173652077616974006C87
:10362C0061743A20006C6F6E3A20007064743A201A
:10363C00006669783A206F6B006C6566743A20629C
:10364C0061636B00656D70747900736176656400FD
:10365C0073656C65637420736C6F743A00206F66CD
:10366C002000776179706F696E743A20006E6F205C
:10367C00776179706F696E7473006C61743A006C69
:10368C006F6E3A0075702F646E3A207363726F6CB4
:10369C006C0072696768743A206E61766967617450
:1036AC006500686173206461746100736C6F7420D1
:1036BC00003E206261747465727920696E666F00D9
:1036CC0020206261747465727920696E666F003EA9
:1036DC002067707320636F6F7264730020206770B3
:1036EC007320636F6F726473003E20736176652084
:1036FC00776179706F696E74002020736176652034
:10370C00776179706F696E74003E20776179706FA4
:10371C00696E74206C697374002020776179706F06
:10372C00696E74206C697374006D656E75007570CC
:10373C002F646F776E3A207363726F6C6C007269D2
:10374C006768743A2073656C65637400766F6C748B
:10375C006167653A200070657263656E743A20008B
:10376C007374617475733A200061726520796F759A
:10377C0020737572653F0072696768743A207965C9
:10378C00732073656E6420736F7300616371756968
:10379C0072696E67206770732E2E2E00656C6170D7
:1037AC007365643A200074696D656F75743A2036E0
:1037BC00307300677073206E6F2066697821007417
:1037CC007279206F75747369646500736F7320610F
:1037DC00726D65642100666F726D617474696E67D9
:1037EC002E2E2E00666F726D617474696E67206D7B
:1037FC0073672E2E2E0073656E64696E6720736F6F
:10380C00732E2E2E00736F732073656E74210068F7
:10381C00656C7020697320636F6D696E672100732E
:10382C00746179207075740073656E6420666169CB
:10383C006C65642100736F733A2072657472790041
:10384C0073797374656D006572726F7221007265A5
:10385C007374617274696E672E2E2E0073687574A2
:10386C0074696E6700646F776E2E2E2E006F76650E
:10387C007277726974653F0072696768743A20796F
:10388C006573006C6566743A206E6F0072656164D6
:10389C00696E67206770732E2E2E007269676874CC
:1038AC003A20636F6E6669726D006E6F206770737D
:1038BC002066697800776179706F696E7420736126
:1038CC007665642100617272697665642100244713
:1038DC0050524D430024474E524D43006E006E65CE
:0A38EC00007365007377006E77002B
:00000001FF
