:100000000C948A000C94A9000C94A9000C94A900EB
:100010000C940C040C94A9000C94A9000C94A90055
:100020000C94A9000C94A9000C94A9000C94A900AC
:100030000C94A9000C94A9000C94A9000C94A9009C
:100040000C94A9000C94A9000C94A9000C94A9008C
:100050000C94A9000C94A9000C94A9000C94A9007C
:100060000C94A9000C94A9000C94A9000C94A9006C
:100070000C94A9000C94A9000C94A9000C94A9005C
:100080000C94A9000C94A9000C94A900084AD73B31
:100090003BCE016E84BCBFFDC12F3D6C74319ABD57
:1000A00056833DDA3D00C77F11BED9E4BB4C3E917B
:1000B0006BAAAABE000000803F05A84CCDB2D44E6A
:1000C000B93836A9020C50B9918688083CA6AAAA6C
:1000D0002ABE000000803F004E414E494E4954590F
:1000E000494E46CDCCCC3D0AD7233C17B7D1387703
:1000F000CC2B329595E6241FB14F0A000020410019
:1001000000C84200401C4620BCBE4CCA1B0E5AAE62
:10011000C59D740011241FBECFEFD0E4DEBFCDBF5C
:1001200017E0A0E0B1E0ECE9F3E300E00BBF02C0B0
:1001300007900D92AA31B107D9F727E2AAE1B7E0FB
:1001400001C01D92A83AB207E1F70E94DB130C949C
:10015000CC190C94000081E0409144075091450770
:1001600020914207309143074217530709F480E07A
:1001700008954F925F926F927F928F929F92AF926B
:10018000BF92EF92FF920F931F93CF934B015C01AD
:100190008A0120E030E0A9010E94CB14C0E087FF73
:1001A00008C08DE2F8018083B7FAB094B7F8B09434
:1001B000C1E0C501B4010E944E157B0190E080E0D2
:1001C0000E947D159B01AC01C501B4010E94EC1396
:1001D00020E030E44CE156E40E949D1620E030E03F
:1001E00040E05FE30E94ED130E944E159B016031D9
:1001F000774228F08FEFE81AF80A30E020E0E4E6D2
:10020000EE16F104D8F0F801EC0FF11DC70164E619
:1002100070E00E949117605D6083CF5FF801EC0F82
:10022000F11DC70164E670E00E9491176AE070E07A
:100230000E949117605D6083CF5F04C0FAE0EF1603
:10024000F10460F7F801EC0FF11D8AE0A82EB12C43
:10025000C701B5010E949117805D8083E1E0EC0F3A
:10026000E00FF12FF11D8EE28083E2E0EC0FE00F52
:10027000F12FF11DC90168EE73E00E949117605DD6
:100280006083E3E0EC0FE00FF12FF11D44E6E42E74
:10029000F12CB7010E949117605D6083E4E0EC0FE0
:1002A000E00FF12FF11DC901B7010E949117B501AF
:1002B0000E949117605D6083E5E0EC0FE00FF12F85
:1002C000F11DC901B5010E949117805D8083E6E0B0
:1002D000EC0FE00FF12FF11D1082CF911F910F91C4
:1002E000FF90EF90BF90AF909F908F907F906F9016
:1002F0005F904F9008950F93CF93DF9300D0CDB7C9
:10030000DEB78FE00E94570D00E021E049EB53E09B
:1003100064E18AE00E94870E21E049EC53E06DE23F
:100320008FE00E94870E80910001805D89831A8290
:1003300023E0AE014F5F5F4F61E487E30E94870EC9
:1003400021E04AED53E06CE68CE00E94870E0E94AB
:10035000820D0F900F90DF91CF910F9108950F9321
:10036000CF93DF9300D0CDB7DEB78FE00E94570D5B
:1003700000E021E04CEE53E064E18AE00E94870E49
:1003800021E04BEF53E06DE28AE00E94870E8091FE
:100390000101805D89831A8223E0AE014F5F5F4FC8
:1003A00061E487E30E94870E21E047E054E06CE6B9
:1003B0008AE00E94870E0E94820D0F900F90DF91BD
:1003C000CF910F9108950F931F93CF93DF93CDB7E4
:1003D000DEB7A6970FB6F894DEBF0FBECDBF8FE095
:1003E0000E94570D00E021E040EF54E065E086E117
:1003F0000E94870E21E044E154E06DE28AE00E9411
:10040000870E21E045E254E061E48AE00E94870E15
:100410000E94820D8BE297E00E943E108093360787
:100420008FE00E94570D21E040EF54E065E086E147
:100430000E94870E80913607811123C021E044E19C
:1004400054E06DE28AE00E94870E21E045E254E02C
:1004500061E48AE00E94870E00E021E04BE454E072
:100460006CE684E10E94870E0E94820DA6960FB66C
:10047000F894DEBF0FBECDBFDF91CF911F910F91DA
:10048000089560912B0770912C0780912D07909112
:100490002E07AE01415F5F4F0E94B90060912F07A8
:1004A000709130078091310790913207AE014F5F14
:1004B0005F4F0E94B90000E021E041E354E06CE1AD
:1004C00084E10E94870E21E0AE01415F5F4F6CE145
:1004D00082E30E94870E21E047E354E060E384E179
:1004E0000E94870E21E0AE014F5F5F4F60E382E321
:1004F0000E94870E2091330730E00091340710E00E
:10050000E0913507F0E0C901079797FD48962AE08A
:1005100030E0B9010E94A517605D6D8F805D8E8F00
:100520004AE34F8FC801B9010E94A517605D68A317
:10053000805D89A34AA3CF01B9010E94A517605D20
:100540006BA3805D8CA31DA200E021E04DE354E08D
:1005500064E484E10E94870E21E0AE01435E5F4FB8
:1005600064E482E30E94870E21E043E454E068E5FE
:1005700084E170CF8F929F92AF92BF92CF92DF9221
:10058000EF92FF920F931F93CF93DF93CDB7DEB718
:1005900062970FB6F894DEBF0FBECDBFD82E8FE0A6
:1005A0000E94570D00E021E042E654E065E08AE059
:1005B0000E94870E86E1F82E10E090E2E92E23E7F4
:1005C000C22E3CE6B32E4FE6A42E54E7952E6AE3E6
:1005D000862E8EE3D11280E28983EA82CB82BC82AE
:1005E000AD829E82EF8280E3810F88878986EA86CA
:1005F000812F0E944B11ECE5F4E0811102C0E6E589
:10060000F4E02AE03191822F90E0311129C0E1E03D
:10061000F0E0EC0FFD1F8E0F9F1FDC011C9200E02D
:1006200021E0AF016F2D82E00E94870E1F5FB4E1D1
:10063000FB0E153071F60E94820D62960FB6F8948B
:10064000DEBF0FBECDBFDF91CF911F910F91FF9005
:10065000EF90DF90CF90BF90AF909F908F900895D4
:100660002F5F41E050E04C0F5D1F840F951FDC01B0
:100670003C93C8CFEF92FF920F931F93CF93DF93DA
:10068000CDB7DEB7E4970FB6F894DEBF0FBECDBF8F
:10069000182F0E949511F82E8FE00E94570D00E050
:1006A00021E04DE255E065E084E10E94870E21E003
:1006B0004FE754E062E3FF2009F48AC0E12C00E038
:1006C0008E2D0E944B1181110F5FE3941E15C0F710
:1006D00064E774E0E0E0DB012D91BD018E2F90E036
:1006E000EF5F211187C021E030E02C0F3D1F820F0A
:1006F000931F005DDC010C936FE674E0DB012D912C
:10070000BD018E2F90E0EF5F21117DC0A1E0B0E030
:10071000AC0FBD1FA80FB91F80E38F0D8C9321E094
:1007200030E02C0F3D1F2E0F311DF901108200E02B
:1007300021E0AE014F5F5F4F62E185E00E94870ECE
:10074000BE01635D7F4F812F0E94AA116DA57EA51A
:100750008FA598A9AE014F5D5F4F0E94B90069A9AE
:100760007AA98BA99CA9AE014B5E5F4F0E94B9008C
:1007700021E04CE854E064E282E00E94870E21E030
:10078000AE014F5D5F4F64E280E20E94870E21E080
:1007900041E954E064E382E00E94870E21E0AE016B
:1007A0004B5E5F4F64E380E20E94870E21E046E9E2
:1007B00054E068E48AE00E94870E21E044EA54E0B5
:1007C00068E58AE00E94870E21E04BE454E068E689
:1007D0008AE00E94870E0E94820DE4960FB6F8947C
:1007E000DEBF0FBECDBFDF91CF911F910F91FF9064
:1007F000EF90089541E050E04C0F5D1F840F951F6E
:10080000DC012C9368CF41E050E04C0F5D1F840F5A
:10081000951FDC012C9372CF1F920F920FB60F928F
:1008200011240F900FBE0F901F90189590934507BD
:100830008093440708958091440790914507089557
:100840000E94E20D0E94AE0E0E9432100E940B1117
:100850000E942D130E940E110C942C1390930401EE
:10086000809303018DE090E09093450780934407C7
:1008700008958F929F92AF92BF92CF92DF92EF92A4
:10088000FF920F931F93CF93DF93CDB7DEB7EA9715
:100890000FB6F894DEBF0FBECDBFE0914407F091D4
:1008A0004507E631F10508F0C4C08C01E65AFB4F5C
:1008B0000C94DB1770047A0466051C064D06C1060D
:1008C0008706FE0663078807A407D8070C084008B8
:1008D0008308B6080C094A09BC09690A8B0AE80AA8
:1008E0000E942004109240078FEF80930201109223
:1008F000410793C10E94AB00811107C0909140074E
:1009000080910201981709F45FC08FE00E94570D93
:1009100000E021E04BE355E065E082E20E94870EB3
:100920008091400743EC54E0882311F042ED54E0FD
:1009300000E021E06CE184E10E94870E8091400795
:1009400041EE54E0813011F04EEE54E000E021E041
:100950006EE284E10E94870E809140074BEF54E0E5
:10096000823011F04BE055E000E021E060E484E1EA
:100970000E94870E809140074BE155E0833011F0D3
:100980004BE255E000E021E062E584E10E94870E41
:1009900021E040E455E069E684E10E94870E21E011
:1009A00040E555E064E78EE10E94870E0E94820DCB
:1009B00080914407909145079093430780934207A5
:1009C00080914007809302010E940C11882349F016
:1009D00081E090E090930401809303018DE090E02A
:1009E0000EC080E00E94700F882371F083E0809336
:1009F000000110923C0710923B0786E090E0909334
:100A000045078093440715C085E00E94700F882336
:100A100019F08FE090E0F3CF82E00E94700F182F62
:100A20008823E1F0809140078823B1F081508093C2
:100A30004007EA960FB6F894DEBF0FBECDBFDF9138
:100A4000CF911F910F91FF90EF90DF90CF90BF90CB
:100A5000AF909F908F90089583E0E9CF81E00E944E
:100A6000700F882349F080914007833010F411E023
:100A7000180F10934007DDCF83E00E94700F88238A
:100A8000C1F280914007813099F048F08230C9F07E
:100A9000833079F610923F0784E190E0B0CF80ED8B
:100AA00097E090933A078093390782E090E0A7CFD0
:100AB00088EE93E0909338078093370783E090E0C7
:100AC0009ECF10921E0780E190E099CF8091390768
:100AD00090913A07080F191F10933A0700933907AE
:100AE0000E94AB00811104C0003D174008F490C083
:100AF0000E943D137C010E946F13182F0E94C313A4
:100B0000482FC70168EE73E00E949117605D69830A
:100B10002EE22A8324E630E0B9010E949117605D3D
:100B20006B83C701B9010E9491176AE070E00E94CF
:100B30009117605D6C8386E78D831E82812F64E64A
:100B40000E948517805D898B2AE0892F622F0E9481
:100B50008517805D8A8B812F0E948517905D9B8B06
:100B60001C8A442309F45CC08CE68D8F8FE68E8F3F
:100B700087E78F8F18A28FE00E94570D00E021E0D9
:100B800044ED54E065E086E10E94870E21E04EE5E9
:100B900055E06EE184E10E94870E21E0AE014F5FD7
:100BA0005F4F6EE18AE40E94870E21E048E655E03F
:100BB00062E384E10E94870E21E0AE014F5E5F4F49
:100BC00062E38AE40E94870E21E042E755E066E492
:100BD00084E10E94870E21E0AE01435E5F4F66E430
:100BE00084E40E94870E21E04BE454E069E684E14E
:100BF0000E94870E0E94820D8091440790914507C4
:100C0000909343078093420710923A071092390756
:100C100084E00E94700F882349F081E090E0EFCEDD
:100C20008FE68D8F8BE68E8F1F8EA5CF80E00E9482
:100C3000700F8111DBCEFDCE0E94AB00882371F0D6
:100C40000E94E301809144079091450790934307E8
:100C50008093420710923807109237078091360729
:100C600081110EC08091370790913807080F191F26
:100C7000083E33E0130750F410933807009337070A
:100C800084E00E94700F8111C8CFD1CF1092380735
:100C9000109237070E94E301F3CF0E94AB00882334
:100CA00019F18FE00E94570D00E021E04BE755E07D
:100CB00069E18AE00E94870E21E049E855E062E39D
:100CC0008AE00E94870E21E047E054E06BE48AE06E
:100CD0000E94870E0E94820D8091440790914507E3
:100CE000909343078093420783E00E94700F88230C
:100CF00009F47DC081E08093410783E08093010186
:100D000010923E0710923D0785E090E078CE8091EA
:100D10003B0790913C07080F191F10933C07009365
:100D20003B070E94AB00882351F00E947B01809119
:100D3000440790914507909343078093420780E0D2
:100D40000E94680F882309F468CF80913B07909137
:100D50003C07883E934008F46CCE10923C071092FA
:100D60003B0780910001882329F081508093000186
:100D70000E947B018091000181115BCE84E090E0B4
:100D80003ECE80913D0790913E07080F191F1093AA
:100D90003E0700933D070E94AB00882351F00E945C
:100DA000AF0180914407909145079093430780934A
:100DB000420780913D0790913E07883E9340B8F0EE
:100DC00010923E0710923D0780910101882329F07F
:100DD0008150809301010E94AF0180910101811136
:100DE00006C087E090E0909345078093440784E035
:100DF0000E94700F882309F41CCE79CD0E94AB00AD
:100E00008823A9F387E090E09093430780934207FB
:100E100080E389838A8383E78B831C828FE00E942F
:100E2000570D00E021E04DE955E069E18AE00E94BC
:100E3000870E21E04EEA55E06DE28AE00E94870EBF
:100E400021E0AE014F5F5F4F6DE280E40E94870EAC
:100E500021E048EB55E061E48AE00E94870E21E042
:100E600047E054E065E58AE00E94870E0E94820D0B
:100E70008BE297E00E943E1080933607882339F07A
:100E800080914107882319F088E090E0B8CD8FE089
:100E90000E94570D00E021E045EC55E063E28AE056
:100EA0000E94870E21E041ED55E067E38AE00E9451
:100EB000870E21E04BE454E06BE48AE00E94870E49
:100EC0000E94820D94CF0E94AB008823E1F08FE056
:100ED0000E94570D00E021E04DED55E068E28AE008
:100EE0000E94870E21E048EE55E06CE38AE00E9404
:100EF000870E0E94820D8091440790914507909340
:100F000043078093420710921A0789E090E077CD5B
:100F10000E94AB008823A9F08FE00E94570D00E0EB
:100F200021E046EF55E062E38AE00E94870E0E94CE
:100F3000820D8091440790914507909343078093D9
:100F400042078AE090E05BCD0E94AB008823E1F08D
:100F50008FE00E94570D00E021E048E056E068E293
:100F60008AE00E94870E21E045E254E06CE38AE0CB
:100F70000E94870E0E94820D809144079091450740
:100F800090934307809342078091A527882319F007
:100F90008BE090E034CD80911A07833020F48F5F8E
:100FA00080931A07CECF10921A078CE090E027CDDD
:100FB0000E94AB00882309F430CE109241078FE0E5
:100FC0000E94570D00E021E047E156E063E28AE02D
:100FD0000E94870E21E041E256E067E38AE00E942A
:100FE000870E21E041E356E06BE48AE00E94870E21
:100FF0000E94820D8091440790914507909343078A
:10100000809342078FEF9FE7A3E481509040A04078
:10101000E1F700C0000001CE0E94AB00882329F157
:10102000109241078FE00E94570D00E021E04AE353
:1010300056E063E28AE00E94870E21E047E456E032
:1010400067E38AE00E94870E21E047E054E06BE40A
:101050008AE00E94870E0E94820D80914407909141
:101060004507909343078093420780E00E94700FEA
:101070008111BCCC84E00E94700F8111CECDD9CCFF
:101080000E94AB00882329F18FE00E94570D00E0F9
:1010900021E042E556E068E286E10E94870E21E009
:1010A0004FE556E06CE38AE00E94870E0E94820DB5
:1010B000809144079091450790934307809342079E
:1010C000BFEFEFEFFCE2B150E040F040E1F700C0CD
:1010D000000083B7817F866083BF83B7816083BF51
:1010E0007894889583B78E7F83BF80E00E94700FCD
:1010F00081117CCC0E940C11811170CC8091030174
:10110000909104017CCC0E94AB00882361F18FE0B8
:101110000E94570D00E021E04FE656E06EE182E2CA
:101120000E94870E21E046E756E062E388E20E94D3
:10113000870E21E04DE756E06BE48AE00E94870EBF
:101140000E94820D80914407909145079093430738
:10115000809342072FEF3FE743E421503040404067
:10116000E1F700C000000E942004C1CB8FE00E9484
:10117000570D00E021E04BE856E068E28CE10E9468
:10118000870E21E044E956E06CE388E20E94870E76
:101190000E94820D5FEF8FEF9CE2515080409040A3
:1011A000E1F700C0000080E00E94570D0E94820D10
:1011B00083B7817F846083BF83B7816083BFF894E6
:1011C00081E280936B0011E0109368007894889519
:1011D00083B78E7F83BF1092680010926B00AFEFD1
:1011E000BFE1E1E0A150B040E040E1F700C0000005
:1011F0000E94200410924307109242071092400769
:101200008FEF8093020110924107009906CD109351
:10121000410787E090E0F3CB0E94AB00882361F0A8
:1012200080911E070E94BA02809144079091450761
:10123000909343078093420782E00E94700F8823B7
:1012400059F080911E07882309F4F3CB81508093D5
:101250001E070E94BA02EDCB81E00E94700F882326
:1012600039F080911E07843008F0E3CB8F5FEFCF19
:1012700083E00E94700F882309F4FCCE80911E0742
:101280000E944B11882319F081E190E0B8CB82E1F4
:1012900090E0B5CB0E94AB00882309F453C08FE0E7
:1012A0000E94570DADEBB4E080E09D91282F30E017
:1012B00061E0680F41E050E04C0F5D1F240F351FC7
:1012C00091114CC090911E07905DD9019C938E5F47
:1012D000FA01E60FF11D90E29083E4EBF4E09191C6
:1012E000282F30E091113EC0E1E0F0E0EC0FFD1F4F
:1012F0002E0F3F1FD9011C9200E021E0AF0164E1F5
:1013000085E00E94870E21E04CE956E06DE284E121
:101310000E94870E21E047EA56E066E48AE00E94D8
:10132000870E21E042EB56E067E58AE00E94870ED7
:101330000E94820D80914407909145079093430746
:101340008093420783E00E94700F8111A0CF84E058
:101350000E94700F882309F46CCBB5CBF901908300
:10136000862FA3CF8F5F41E050E04C0F5D1F240F0D
:10137000351FD9019C93B3CF0E94AB00882309F499
:1013800079C08FE00E94570D00E021E04DE055E06C
:1013900065E08AE00E94870E21E04BEB56E063E2B5
:1013A0008AE00E94870E0E94820D80E297E00E94F0
:1013B0003E1080931F078FE00E94570D21E04DE003
:1013C00055E065E08AE00E94870E80911F07882320
:1013D00009F472C060912007709121078091220763
:1013E00090912307AE014F5E5F4F0E94B90060915C
:1013F0002407709125078091260790912707AE0159
:101400004F5F5F4F0E94B90021E04CE854E06CE16F
:1014100082E00E94870E21E0AE014F5E5F4F6CE1DB
:1014200086E20E94870E21E041E954E06BE282E00F
:101430000E94870E21E0AE014F5F5F4F6BE286E2B4
:101440000E94870E21E04AEC56E061E48AE00E94A7
:10145000870E21E047E054E060E58AE00E94870EB5
:101460000E94820D80914407909145079093430715
:101470008093420780911F07882309F4FBCD83E006
:101480000E94700F882309F4F5CD00912407109174
:10149000250720912607309127074091200750917A
:1014A0002107609122077091230780911E070E94F7
:1014B0005B1183E190E0A3CA00E021E049ED56E032
:1014C00068E28AE00E94870E21E047E054E061E490
:1014D000C4CF0E94AB00882309F49FCB8FE00E9409
:1014E000570D00E021E044EE56E062E38AE00E94FE
:1014F000870E0E94820D809144079091450790933A
:10150000430780934207BFEFEFEBF1E2B150E040B9
:10151000F040E1F77ECD0E94AB008823B1F010923D
:101520003F0710E0812F0E944B118823B1F11093E7
:101530003F0780913F070E943A03809144079091B2
:101540004507909343078093420782E00E94700F03
:1015500010913F07811125C081E00E94700F10910A
:101560003F07811131C083E00E94700F882309F486
:1015700081CD80913F070E944B11882309F459CAFD
:1015800080913F0780931B0780E69AEE90931D079A
:1015900080931C0785E190E032CA1F5F153011F679
:1015A000C8CF115017FD45CA812F0E944B118823C7
:1015B000C1F310933F07812F0E943A033ACA812F4B
:1015C0000E944B118111F5CF1F5F1530C0F331CA56
:1015D0000E94AB00882331F085E190E090934307AF
:1015E0008093420780911C0790911D07080F191FD7
:1015F00000362AEE120750F410931D0700931C07C3
:1016000084E00E94700F811147CA13CA10921D070F
:1016100010921C07CE014D960E943E10182F8FE0AD
:101620000E94570D1CAA1DAA1EAA80911B07805D4F
:101630008CAB00E021E044E754E065E082E00E94EA
:10164000870E21E0AE014C5C5F4F65E08EE30E94A7
:10165000870E112309F4AEC1BE01685D7F4F8091F2
:101660001B070E94AA11ACA4BDA4CEA4DFA4E8A4C9
:10167000F9A40AA51BA529A13AA14BA15CA16D8DD6
:101680007E8D8F8D98A1FE01F796FF93EF93329692
:10169000FF93EF93DE01D0964D010E94C4110F908D
:1016A0000F900F900F9088A999A9AAA9BBA94E974E
:1016B000A105B10598F400E021E044EF56E062E3B3
:1016C00084E10E94870E00E021E04BE454E064E6F0
:1016D00082E00E94870E0E94820D92CF29AD3AAD22
:1016E0002436310508F4D3C0C90164E670E00E94D5
:1016F0009117605D698B01E0E1E0E00F41E150E0AE
:101700004C0F5D1F400F511D8A01C90164E670E056
:101710000E9491176AE070E00E949117605DD80105
:101720006C9301E110E00C0F1D1F0E0F111DC9017C
:101730006AE070E00E949117805DD8018C93A1E06F
:10174000AE0F21E130E02C0F3D1F2A0F311DD901D2
:1017500080E28C93A2E0AE0F41E150E04C0F5D1FA0
:101760004A0F511DDA0194E69C93A3E0AE0F21E1EC
:1017700030E02C0F3D1F2A0F311DD90195E69C93B7
:10178000A4E0AE0F41E150E04C0F5D1F4A0F511D28
:10179000DA0197E69C9326E02E0FEB5FA1E1B0E023
:1017A000AC0FBD1FAE0FB11DFD018083EFA9F8ADD9
:1017B0003191822F90E0311171C0E1E1F0E0EC0F46
:1017C000FD1F8E0F9F1FDC011C9200E021E0AF0186
:1017D0006CE182E00E94870E68A979A98AA99BA979
:1017E000683C71058105910508F069C09B0164366C
:1017F000710508F45DC081E3898301E0E1E0E00F59
:1018000041E050E04C0F5D1F400F511D8A01C9019E
:1018100064E670E00E9491176AE070E00E94911700
:10182000605DD8016C9301E010E00C0F1D1F0E0FDE
:10183000111DC9016AE070E00E949117805DD80116
:101840008C93A1E0AE0F21E030E02C0F3D1F2A0F5A
:10185000311DD90180E28C9383E08E0FEE5F41E071
:1018600050E04C0F5D1F4E0F511DFA019DE6908315
:10187000E1E0F0E0EC0FFD1FE80FF11D108200E049
:1018800021E0AE014F5F5F4F6EE282E01ACFE0E0F1
:101890002A30310508F445CF00E02ECF2F5F41E11B
:1018A00050E04C0F5D1F840F951FDC013C9380CFEF
:1018B000E0E06A30710508F4B6CF00E09FCF28EE73
:1018C00033E040E050E00E94B917890124E630E09F
:1018D00040E050E00E94B9170436110508F463C0D7
:1018E000C80164E670E00E949117605D698381E041
:1018F000E1E0E80FEE24E394F12CEC0EFD1EE80E7F
:10190000F11CC80164E670E00E9491176AE070E083
:101910000E949117605DD7016C93EE24E394F12C43
:10192000EC0EFD1EEE0EF11CC8016AE070E00E9494
:101930009117805DD7018C93A1E0AE0F41E050E09C
:101940004C0F5D1F4A0F511DDA018EE28C93A2E00D
:10195000AE0F81E090E08C0F9D1F8A0F911DDC017E
:10196000205D2C93A3E0AE0F21E030E02C0F3D1F53
:101970002A0F311DD90180E28C93A4E0AE0F41E023
:1019800050E04C0F5D1F4A0F511DDA018BE68C931E
:1019900086E08E0FEB5FA1E0B0E0AC0FBD1FAE0F95
:1019A000B11DFD0163CFE0E00A30110508F4B5CFA9
:1019B00080E09ECF00E021E049ED56E068E265CF8F
:1019C0008093BB0084E88093BC008091BC0087FFBB
:1019D000FCCF9091B900987F81E0983209F080E0C7
:1019E000089584E98093BC008091BC0084FDFCCF05
:1019F000089584EA8093BC008091BC0087FFFCCFEF
:101A00008AE78093BB0084E88093BC008091BC008F
:101A100087FFFCCF9091B900987F81E0983109F061
:101A200080E00895EF92FF920F931F93CF93DF937F
:101A3000182FE92E062F0E94F90C882381F080E0F0
:101A40000E94E00C882341F0F12EC12FDE2D8991F8
:101A50000E94E00C81110AC00E94F10C80E0DF912D
:101A6000CF911F910F91FF90EF9008958C2F8F19B8
:101A7000801768F30E94F10C81E0F1CFCF93C82F5B
:101A80000E94F90C882341F080E80E94E00C81114B
:101A900005C00E94F10C80E0CF9108958C2F0E9428
:101AA000E00C8823B1F30E94F10C81E0F5CF8F7038
:101AB00090E1899F90011124822BE6E4F7E0819365
:101AC00097E2E634F907D9F7089587FD18C067FD56
:101AD00016C04F7090E4699FB0011124E82FE6957D
:101AE000E60FF72FF11DEA5BF84F908180FD08C0EB
:101AF0009F7080E1489FA0011124942B908308954A
:101B0000907FFBCF9F92AF92BF92CF92DF92EF92E6
:101B1000FF920F931F93CF93DF9300D000D000D09C
:101B2000CDB7DEB786E0E5E0F1E0DE011196019089
:101B30000D928A95E1F766E0CE0101960E94120DA2
:101B400086E4A82E87E0B82E86E4A81687E2B806B9
:101B500091F426960FB6F894DEBF0FBECDBFDF918D
:101B6000CF911F910F91FF90EF90DF90CF90BF909A
:101B7000AF909F900895750110E4012F113108F086
:101B800000E10E94F90C882349F080E40E94E00CF7
:101B90009E2C670181110AC00E94F10CE00EF11C1D
:101BA000101B59F7F0E4AF0EB11CCECFF6018191B6
:101BB0006F010E94E00C882379F38C2D891980171E
:101BC000A8F3EACF87B18C7F87B988B1836088B9E1
:101BD0001092B9008CE18093B80084E08093BC003F
:101BE000569A5E9A8FEF97E40197F1F700C00000D4
:101BF0005E988FEF9FE80197F1F700C000005E9AB2
:101C00008FEF9FE80197F1F700C000006EE18BE0D5
:101C100091E00E94120D9FEF2FE382E0915020404F
:101C20008040E1F700C000008FEA0E943E0D81E88D
:101C30000E943E0D8FE20E943E0D80E00E94570DF3
:101C40000C94820D3F924F925F926F927F928F928F
:101C50009F92AF92BF92CF92DF92EF92FF920F933B
:101C60001F93CF93DF9347FD33C0D22F562EC22F41
:101C7000C80F85E0480270011124D12CC12CF60157
:101C8000EE0DFF1DE75DFE4F80804C2E4D1A1D2F7F
:101C9000150DB12CA12C912CC4010A2C02C09595D4
:101CA00087950A94E2F7312E3D1A742C80FD2BC0E3
:101CB0008FEFA81AB80A1D0F87E0A816B10461F7C4
:101CC0008FEFC81AD80ACD0F85E0C816D104B9F62F
:101CD000DF91CF911F910F91FF90EF90DF90CF9008
:101CE000BF90AF909F908F907F906F905F904F903C
:101CF0003F900895402F662D872D0E94650D6394B7
:101D00001611F8CF73947C1699F2632CF9CFCF9209
:101D1000DF92EF92FF920F931F93CF93DF93D82F11
:101D2000D62E122FC02EC22FCC0FC20FCC0F7A018D
:101D3000F70141917F01411109C0DF91CF911F91BE
:101D40000F91FF90EF90DF90CF9008950C2D212FF1
:101D50006D2D8D2F0E94220EDC0FEACF81B1807C89
:101D600081B982B18F6382B9E6E4F7E21082118211
:101D70001282138214821682158210861782399677
:101D800087E2EC37F80791F708958F929F92AF9210
:101D9000BF92CF92DF92EF92FF92CF93DF939C019D
:101DA000E6E4F7E280E061E04EE150E0CC24CA9442
:101DB000DC2CE12CF12CC21AD30AE108F1088330A3
:101DC00009F45EC008F04CC0813009F47DC0823057
:101DD00009F450C090B1909591707081718379171A
:101DE00091F0A581B681AE31B10560F4A20FB31FA9
:101DF000AF31B10508F04DC0B683A583A581B6818A
:101E00005E9718F090831682158291817081EF01A0
:101E10002996772309F440C0911104C0628310868B
:101E200017821482A781B0854D01B12CA12C8C148E
:101E30009D04AE04BF0424F4A20FB31FB087A78390
:101E4000811130C0E0914D27F0914E27E83BFB40D7
:101E5000C8F190914A27911135C060934A2722C05A
:101E6000843099F0853009F0B5CF90B195FB992772
:101E700090F904C090B192FB992790F99627ADCFC5
:101E800090B193FB992790F9F9CF90B19295917009
:101E9000F5CF56834583B2CF992321F06383108613
:101EA000178214828F5FFE01863009F088CFDF91A0
:101EB000CF91FF90EF90DF90CF90BF90AF909F9029
:101EC0008F900895FE0181E090B19695982784CF78
:101ED00099E0899FF0011124EA5BF84D8081089513
:101EE00099E0899FF0011124EA5BF84D82818823F3
:101EF00011F0128281E0089599E0899FF001112488
:101F0000EA5BF84D8381882311F0138281E0089504
:101F100099E0899FF0011124EA5BF84D8781908553
:101F2000089580914A27882319F010924A2781E06A
:101F3000089580914627882369F020914D2730919C
:101F40004E27283B8BE0380740F488EB9BE0821B50
:101F5000930B089588EB9BE0089590E080E008954E
:101F6000CF93DF9330E0FC017191711102C0E0E08A
:101F70001BC07C3219F43F5FCF01F5CF3613FCCF85
:101F8000DC012150330B01C09883EA2FE81B9D919F
:101F90006E2F70E0EA01C60FD71F992329F09C32FB
:101FA00019F06217730784F3E40FF52FF11D108207
:101FB000DF91CF9108958F929F92AF92BF92CF926F
:101FC000DF92EF92FF92CF93DF93FC0120812223D7
:101FD00009F444C0EB010E94FE174B015C0120E0B4
:101FE00030E048EC52E40E94D5140E9447156B0182
:101FF00084E68C9DB0018D9D700D1124072E000C80
:10200000880B990B0E947F159B01AC01C501B4019F
:102010000E94EC1320E030E040E752E40E94D51427
:102020004B015C01B601DD0C880B990B0E947F15FA
:102030009B01AC01C501B4010E94ED1328812B7FE7
:10204000233509F49058DF91CF91FF90EF90DF9006
:10205000CF90BF90AF909F908F90089560E070E018
:10206000CB01F1CF1092C5008FE28093C40088E1CC
:102070008093C10086E08093C20008950F931F9360
:10208000CF93DF93CDB7DEB7CA57D1090FB6F89417
:10209000DEBF0FBECDBF8C018091C00087FFFCCF9B
:1020A0008091C6008432C1F78983DE011296E1E097
:1020B0008091C00087FFFCCF8091C6008A3021F05C
:1020C000EF5F8D93E135A1F781E090E08C0F9D1FCC
:1020D0008E0F911DFC01108246E050E06DEF76E01E
:1020E000CE0101960E940218892B51F046E050E083
:1020F00064E077E0CE0101960E940218892B61F618
:102100002CE0AE0145595F4F62E0CE0101960E947E
:10211000B00FAC968FADAC97813409F07AC02CE04B
:10212000AE01415A5F4F63E0CE0101960E94B00FAD
:1021300022E0AE0147585F4F64E0CE0101960E9455
:10214000B00FBE0167587F4FCE01815A9F4F0E944A
:10215000DB0FF80160837183828393832CE0AE01EF
:102160004D5A5F4F65E0CE0101960E94B00F22E00C
:10217000AE0149585F4F66E0CE0101960E94B00F54
:10218000BE0169587F4FCE018D5A9F4F0E94DB0FD1
:10219000F80164837583868397832CE0AE014559EB
:1021A0005F4F61E0CE0101960E94B00FAC962FAD5B
:1021B000AC9720539AE0AD968FADAD978053299F91
:1021C000800D1124F8018087AE962FADAE97205375
:1021D000AF968FADAF978053299F800D11248187D3
:1021E000E0962FADE0972053E1968FADE1978053B5
:1021F000299F800D1124828781E0C658DF4F0FB6DA
:10220000F894DEBF0FBECDBFDF91CF911F910F912C
:10221000089580E0F2CF08950C94C313CF93DF9319
:1022200090E080E00E94CD13863A71F01092A427CE
:1022300066EA90E080E00E94CB1360E081E090E0ED
:10224000DF91CF910C94CB1381E090E00E94CD13ED
:102250008093A427D0E0C0E08091A42790E00C2ECA
:1022600002C0959587950A94E2F780FF0DC0CE01D4
:1022700023E0880F991F2A95E1F7BC016458784D37
:1022800048E002960E94D5132196C530D10521F76A
:10229000DF91CF910895853060F42091A42730E03C
:1022A000A90102C0559547958A95E2F7CA01817048
:1022B000089580E00895CF92DF92EF92FF920F93FE
:1022C0001F93CF93853078F56A017B01C82F48E0D2
:1022D000849FC0011124BC016458784DFB01C08269
:1022E000D182E282F382048315832683378348E018
:1022F00002960E94CF1381E090E001C0880FCA953A
:10230000EAF76091A427682B6093A42781E090E00E
:102310000E94CB1381E0CF911F910F91FF90EF901E
:10232000DF90CF90089580E0F6CF4091A42750E051
:1023300030E020E080E0BA01022E02C0759567957A
:102340000A94E2F760FD8F5F2F5F3F4F2530310524
:1023500091F708950F931F93CF93C82F8B010E947D
:102360004B11882369F088E0C89FF0011124E458DC
:10237000F84D88E0D80101900D928A95E1F781E04F
:10238000CF911F910F9108954F925F926F927F921C
:102390008F929F92AF92BF92CF92DF92EF92FF9275
:1023A0000F931F93CF93DF93CDB7DEB764970FB62C
:1023B000F894DEBF0FBECDBF69837A838B839C8385
:1023C0002D833E834F83588727013801840125E3FD
:1023D0003AEF4EE85CE30E949D1669877A878B8707
:1023E0009C8725E33AEF4EE85CE3C301B7010E9406
:1023F0009D166D877E878F87988B2D813E814F81BB
:102400005885C601B5010E94EC1325E33AEF4EE86A
:102410005CE30E949D166B017C0129813A814B810E
:102420005C81C301B2010E94EC1325E33AEF4EE850
:102430005CE30E949D1620E030E040E05FE30E94F4
:102440009D160E940A172B013C0169857A858B85B0
:102450009C850E94D0146D837E838F8398876D85C1
:102460007E858F8598890E94D01469837A838B83B7
:102470009C8320E030E040E05FE3C701B6010E94AA
:102480009D160E940A174B015C0129813A814B81FC
:102490005C816D817E818F8198850E949D16A5014A
:1024A00094010E949D16A50194010E949D164B0166
:1024B0005C01A3019201C301B2010E949D169B0120
:1024C000AC01C501B4010E94ED134B015C01AC01EC
:1024D0009B0160E070E080E89FE30E94EC130E94A3
:1024E00018172B013C01C501B4010E941817A30164
:1024F00092010E946C1420E73DE642E45BE40E94F6
:102500009D1620E030E040E05FE30E94ED130E9462
:102510004E15F8016083718382839383C701B601EE
:102520000E940A17698B7A8B8B8B9C8B6D857E85BD
:102530008F8598890E940A172B013C0169857A854D
:102540008B859C850E940A174B015C01C701B6016F
:102550000E94D0146B017C01A30192016D817E81E8
:102560008F8198850E949D162B013C01A501940145
:1025700069817A818B819C810E949D16A7019601B9
:102580000E949D169B01AC01C301B2010E94EC1395
:102590006B017C0129893A894B895C8969817A813F
:1025A0008B819C810E949D16A70196010E946C144C
:1025B00020EE3EE245E652E40E949D166B017C014E
:1025C00020E030E0A9010E94CB1487FF0AC020E080
:1025D00030E044EB53E4C701B6010E94ED136B01F8
:1025E0007C01C701B6010E944E15EFA1F8A57183C9
:1025F000608320E030E044EB51E4C701B6010E9463
:10260000ED130E944E15CB016DE270E00E94911710
:10261000FB01E770FF27EE0FFF1FE755FC4F80819E
:102620009181E9A5FAA59183808364960FB6F89409
:10263000DEBF0FBECDBFDF91CF911F910F91FF90F5
:10264000EF90DF90CF90BF90AF909F908F907F9052
:102650006F905F904F900895089580E480937C0080
:1026600087E880937A0080917A00806480937A0072
:1026700080917A0086FDFCCF08950F931F9384E02C
:1026800000E010E0980190917A00906490937A00B5
:1026900090917A0096FDFCCF60917800709179005E
:1026A000060F171F211D311D815069F7A9019801DF
:1026B00082E056954795379527958A95D1F7442717
:1026C0005527A0E1B7E20E94E4172FEF33E040E086
:1026D00050E00E94B917C9011F910F9108950E94FF
:1026E0003D1364E6883620E19207B8F460E08F3B42
:1026F0002AE0920790F0803A2FE0920780F044E1C0
:10270000489F9001499F300D1124C901805898437A
:1027100068EC70E00E949117605B862F0895843703
:102720002EE0920778F04EE1489F9001499F300DCE
:102730001124C9018859914B6CE271E00E949117F4
:102740006E5CEBCF88342DE0920778F04EE1489F25
:102750009001499F300D1124C90180579E486CE2B9
:1027600071E00E9491176C5ED8CF44E1489F9001C0
:10277000499F300D1124C901885D964D6AE872E0C9
:102780000E949117CACF0E946F1391E08B3008F01E
:1027900090E0892F08950C94BA190C94A2199C0109
:1027A000CB0150E0B9010C94AA199C01CB0150E077
:1027B000B9010C9492190E9420048AE090E00E94D2
:1027C000C50E8AE090E00E9439048FEF97E40197EC
:1027D000F1F700C00000F1CF5058BB27AA270E9494
:1027E00004140C9447160E940E1638F00E94151619
:1027F00020F039F49F3F19F426F40C94E4150EF4FC
:10280000E095E7FB0C94DE15E92F0E946C1658F357
:10281000BA17620773078407950720F079F4A6F5C5
:102820000C948E160EF4E0950B2EBA2FA02D0B01F2
:10283000B90190010C01CA01A0011124FF27591B05
:1028400099F0593F50F4503E68F11A16F040A22F0B
:10285000232F342F4427585FF3CF4695379527957C
:10286000A795F0405395C9F77EF41F16BA0B620B7B
:10287000730B840BBAF09150A1F0FF0FBB1F661FC2
:10288000771F881FC2F70EC0BA0F621F731F841F05
:1028900048F4879577956795B795F7959E3F08F02B
:1028A000B0CF9395880F08F09927EE0F97958795ED
:1028B00008950E940E1660F080E891E009F49EEF02
:1028C0000E94151628F040E851E071F45EEF0CC04C
:1028D0000C94E4150C948E16E92FE0780E946C1687
:1028E00040F3092E052AB1F3261737074807590781
:1028F00038F00E2E07F8E02569F0E025E0640AC004
:10290000EF6307F8009407FADB01B9019D01DC01D0
:10291000CA01AD01EF930E94EC140E9447160E9479
:102920009C145F91552339F02BED3FE049E450FDB5
:1029300049EC0C94ED130895DF93DD27B92FBF7791
:1029400040E85FE31616170648075B0718F4D92F0F
:102950000E9495169F938F937F936F930E945817B1
:10296000ECE8F0E00E94E7150E9447162F913F9196
:102970004F915F910E94B016DD2351F09058A2EA6A
:102980002AED3FE049EC5FE3D0785D270E94041414
:10299000DF910C9447160E94BA1508F481E008955F
:1029A0000E941E16E3950C9458160E94E9140C948C
:1029B00047160E94151658F00E940E1640F029F492
:1029C0005F3F29F00C94DE1551110C948F160C9476
:1029D000E4150E946C1668F39923B1F3552391F323
:1029E000951B550BBB27AA2762177307840738F07E
:1029F0009F5F5F4F220F331F441FAA1FA9F335D0DB
:102A00000E2E3AF0E0E832D091505040E695001C8E
:102A1000CAF72BD0FE2F29D0660F771F881FBB1F48
:102A2000261737074807AB07B0E809F0BB0B802D26
:102A3000BF01FF2793585F4F3AF09E3F510578F052
:102A40000C94DE150C948F165F3FE4F3983ED4F39C
:102A5000869577956795B795F7959F5FC9F7880F26
:102A6000911D9695879597F90895E1E0660F771F78
:102A7000881FBB1F621773078407BA0720F0621B09
:102A8000730B840BBA0BEE1F88F7E09508950E9434
:102A90004E156894B1110C948F1608950E94741607
:102AA00088F09F5798F0B92F9927B751B0F0E1F00F
:102AB000660F771F881F991F1AF0BA95C9F714C0BF
:102AC000B13091F00E948E16B1E008950C948E16EC
:102AD000672F782F8827B85F39F0B93FCCF38695F8
:102AE00077956795B395D9F73EF490958095709555
:102AF00061957F4F8F4F9F4F0895E89409C097FBD2
:102B00003EF490958095709561957F4F8F4F9F4FC4
:102B10009923A9F0F92F96E9BB279395F695879508
:102B200077956795B795F111F8CFFAF4BB0F11F4CB
:102B300060FF1BC06F5F7F4F8F4F9F4F16C0882372
:102B400011F096E911C0772321F09EE8872F762FA8
:102B500005C0662371F096E8862F70E060E02AF0E9
:102B60009A95660F771F881FDAF7880F96958795D5
:102B700097F90895990F0008550FAA0BE0E8FEEFAA
:102B800016161706E807F907C0F012161306E40731
:102B9000F50798F0621B730B840B950B39F40A262A
:102BA00061F0232B242B252B21F408950A2609F408
:102BB000A140A6958FEF811D811D089597F99F670C
:102BC00080E870E060E008959FEF80EC0895DF9367
:102BD000CF931F930F93FF92EF92DF927B018C01B3
:102BE000689406C0DA2EEF010E94B016FE01E89448
:102BF000A5912591359145915591A6F3EF010E943C
:102C00000414FE019701A801DA9469F7DF90EF90B0
:102C1000FF900F911F91CF91DF91089500240A94A6
:102C20001616170618060906089500240A941216A7
:102C300013061406050608950C94E4150E947416F4
:102C4000D8F3E894E0E0BB279F57F0F02AED3FE08F
:102C500049EC06C0EE0FBB0F661F771F881F28F0D8
:102C6000B23A62077307840728F0B25A620B730BFB
:102C7000840BE3959A9572F7803830F49A95BB0FE0
:102C8000661F771F881FD2F790480C945E17092E95
:102C90000394000C11F4882352F0BB0F40F4BF2BB7
:102CA00011F460FF04C06F5F7F4F8F4F9F4F0895F7
:102CB000EF93E0FF07C0A2EA2AED3FE049EC5FEBAB
:102CC0000E9404140E9447160F90039401FC905830
:102CD000E9EBF0E00C94711757FD9058440F551F25
:102CE00059F05F3F71F04795880F97FB991F61F08E
:102CF0009F3F79F087950895121613061406551F05
:102D0000F2CF4695F1DF08C0161617061806991F70
:102D1000F1CF86957105610508940895E894BB2765
:102D200066277727CB0197F908959B01AC0160E0F6
:102D300070E080E89FE30C94D5140E94B0160C94C8
:102D400047160E940E1638F00E94151620F09523A3
:102D500011F00C94DE150C94E41511240C948F16CC
:102D60000E946C1670F3959FC1F3950F50E0551FAC
:102D7000629FF001729FBB27F00DB11D639FAA27D0
:102D8000F00DB11DAA1F649F6627B00DA11D661F1F
:102D9000829F2227B00DA11D621F739FB00DA11D40
:102DA000621F839FA00D611D221F749F3327A00DFA
:102DB000611D231F849F600D211D822F762F6A2F96
:102DC00011249F5750409AF0F1F088234AF0EE0FFB
:102DD000FF1FBB1F661F771F881F91505040A9F728
:102DE0009E3F510580F00C94DE150C948F165F3FCA
:102DF000E4F3983ED4F3869577956795B795F79564
:102E0000E7959F5FC1F7FE2B880F911D96958795DB
:102E100097F908959F930E941E160F9007FCEE5F8E
:102E20000C94581619F416F40C94E4150C945C17D1
:102E30000E947416B8F39923C9F3B6F39F57550B44
:102E400087FF0E946A170024A0E640EA900180589C
:102E50005695979528F4805C660F771F881F20F0A1
:102E600026173707480730F4621B730B840B2029A1
:102E700031294A2BA69517940794202531254A27F6
:102E800058F7660F771F881F20F026173707480767
:102E900030F4620B730B840B200D311D411DA09586
:102EA00081F7B901842F9158880F969587950895D9
:102EB0009B01AC010C949D169F3F31F0915020F482
:102EC000879577956795B795880F911D9695879506
:102ED00097F9089591505040660F771F881FD2F7D9
:102EE00008959F938F937F936F93FF93EF939B012D
:102EF000AC010E949D16EF91FF910E94E7152F9162
:102F00003F914F915F910C949D16991B79E004C0FD
:102F1000991F961708F0961B881F7A95C9F7809518
:102F20000895AA1BBB1B51E107C0AA1FBB1FA61710
:102F3000B70710F0A61BB70B881F991F5A95A9F762
:102F400080959095BC01CD01089597FB072E16F44E
:102F5000009407D077FD09D00E94911707FC05D097
:102F60003EF4909581959F4F0895709561957F4FA0
:102F70000895A1E21A2EAA1BBB1BFD010DC0AA1FBA
:102F8000BB1FEE1FFF1FA217B307E407F50720F0D2
:102F9000A21BB30BE40BF50B661F771F881F991F4D
:102FA0001A9469F760957095809590959B01AC0196
:102FB000BD01CF010895EE0FFF1F0024001C0BBEC2
:102FC0000790F691E02D09940E94EF17A59F900DB0
:102FD000B49F900DA49F800D911D11240895A29F70
:102FE000B001B39FC001A39F700D811D1124911DDD
:102FF000B29F700D811D1124911D089566277727BA
:103000000C941018FB01DC014150504030F08D91C0
:103010000190801919F40020B9F7881B990B0895C5
:103020008F929F92AF92BF92CF92DF92EF92FF92D8
:103030000F931F93CF93DF935C017B0161157105A3
:1030400019F0DB018D939C9385010F5F1F4FF501F4
:10305000D0818D2F90E00E946E196C01892BB9F5FB
:10306000DD32B9F50F5F1F4FD5011196DC91C1E03C
:103070005801F1E0AF1AB10843E050E060EE70E0B3
:10308000C5010E947719892B69F5680182E0C80E95
:10309000D11C45E050E06BED70E0C6010E9477194D
:1030A000892B21F4680197E0C90ED11CE114F104C9
:1030B00019F0D701CD92DC9260E070E080E89FEFDC
:1030C000C111FFC060E070E080E89FE7FAC05801DE
:1030D000BBCFDB3229F485010E5F1F4FF501D18193
:1030E000C0E0C6CF43E050E068ED70E0C5010E944B
:1030F0007719892BE9F0F80110E000E020E030E0DA
:10310000A9015F01B0ED8B2E8D0E89E08815C8F105
:103110009C2E689491F88C2F8870C2FF16C0811184
:1031200002C00F5F1F4F3196D501DC91C92DE9CF49
:10313000E114F10429F00E5F1F4FF70111830083A2
:1031400060E070E080EC9FE7BCC0882311F0015084
:103150001109A5E0B0E00E94E4179B01AC01220F29
:10316000331F441F551F280D311D411D511D283986
:1031700099E93907490799E15907A8F2C6609C2ED9
:10318000D2CFAEEF8A1206C0C3FD3CC09C2E68941D
:1031900093F8C9CFDF7DD534A9F580818D3239F41C
:1031A000C061DF011296818162E070E006C0DF013C
:1031B0008B32C1F3119661E070E080535D01A61A75
:1031C000B70A8A30F8F4E0E8CE16ECE0DE065CF4EC
:1031D000B601660F771F660F771FC60ED71ECC0C81
:1031E000DD1CC80ED11C5D01FFEFAF1ABF0A8C9128
:1031F00080538A30A8F1C4FF03C0D194C194D10890
:103200000C0D1D1DC1FF09C0E114F10431F081E076
:10321000A81AB108D701AD92BC92CA01B9010E94A7
:103220007D15C370C33009F490584B015C0120E058
:1032300030E0A9010E94CB14882309F440C0CFE0FC
:10324000D1E017FF05C0119501951109C7EFD0E036
:103250006E01B8E1CB1AD10880E2E82EF12C0FC044
:10326000D501B1CFFE0125913591459154910E19AB
:103270001F09C501B4010E949D164B015C01D501D7
:10328000C4010E151F0574F72497F594E794CC1626
:10329000DD06A9F78A2F880F8B2F881F8F3F49F0F3
:1032A00020E030E0A901C501B4010E94CB148111D6
:1032B00006C082E290E09093A7278093A627C501DD
:1032C000B401DF91CF911F910F91FF90EF90DF90AC
:1032D000CF90BF90AF909F908F90089591110C94D4
:1032E0008F19803219F089508550C8F70895FB0175
:1032F000DC014150504088F08D9181341CF08B35B9
:103300000CF4805E659161341CF06B350CF4605EEA
:10331000861B611171F3990B0895881BFCCF9927C7
:1033200088270895DC01CB01FC01F999FECF06C086
:10333000F2BDE1BDF89A319600B40D924150504073
:10334000B8F70895F999FECF92BD81BDF89A9927F3
:1033500080B50895DC01A40FB51F4150504048F0DE
:10336000CB01840F951F2E910E94BB1941505040F4
:10337000D0F70895262FF999FECF92BD81BDF89A16
:10338000019700B4021639F01FBA20BD0FB6F894A9
:0C339000FA9AF99A0FBE0895F894FFCF46
:10339C000303FF010075007F15003FAE8180A05133
:1033AC00A100A200A6A87FB111B300AB01B604BE68
:1033BC000FBC08D562FD12A4AF0000000000000095
:1033CC0000000000000000000000000000000000F1
:1033DC0000000000000000000000000000000000E1
:1033EC0000000000000000000000000000000000D1
:1033FC0000000000000000000000000000000000C1
:10340C0000000000000000000000000000000000B0
:10341C0000000000000000000000000000000000A0
:10342C000000000000000000000000000000000090
:10343C000000000000000000000000000000000080
:10344C000000000000000000000000000000000070
:10345C000000000000000000000000000000000060
:10346C005F000000000000000000000000000000F1
:10347C000000000000000000000000000000000040
:10348C000000000000000000000000000000000030
:10349C0000000000000000000000080808080800F8
:1034AC006060000000000000003E5149453E0042B3
:1034BC007F400042615149462141454B311814125D
:1034CC007F1027454545393C4A494930017109056A
:1034DC00033649494936064949291E00363600004B
:1034EC0000000000000000000000000000000000D0
:1034FC004122140800000000000000000000000041
:10350C0000000000000000000000000000000000AF
:10351C00000000000000000000000000000000009F
:10352C00000000000000000000000000000000008F
:10353C00000000000000000000000000000000007F
:10354C00000000000000000000000000000000006F
:10355C00000000000000000000000000000000005F
:10356C00000000000000000000000000000000004F
:10357C00000000000000000000000000000000003F
:10358C00000000000000000000000000000000002F
:10359C0000000000000000000000000000002054AB
:1035AC005454787F48444438384444442038444484
:1035BC00487F3854545418087E0901020C52525258
:1035CC003E7F0804047800447D40002040443D00C8
:1035DC007F1028440000417F40007C041804787C54
:1035EC000804047838444444387C1414140808142F
:1035FC0014187C7C080404084854545420043F4498
:10360C0040203C4040207C1C2040201C3C40304052
:10361C003C44281028440C5050503C4464544C44B6
:10362C00000000000000000000000000000000008E
:10363C000000000000000000000B070D07DB051068
:10364C0007C305130717071607736F73206275748A
:10365C00746F6E2068656C6400656E746572696E5B
:10366C006720736F7320696E3A0072656C656173C5
:10367C006520746F2063616E63656C00736F7320DB
:10368C00636F6E6669726D6564210073656E646943
:10369C006E6720696E3A006C6566743A2063616EE1
:1036AC0063656C00616371756972696E6720666928
:1036BC00782E2E2E00706C656173652077616974AD
:1036CC00006C61743A20006C6F6E3A200070647468
:1036DC003A20006669783A206F6B006C6566743A24
:1036EC00206261636B00656D70747900736176653F
:1036FC00640073656C65637420736C6F743A00209E
:10370C006F662000776179706F696E743A20006E75
:10371C006F20776179706F696E7473006C61743AA5
:10372C00006C6F6E3A0075702F646E3A2073637282
:10373C006F6C6C0072696768743A206E61766967A9
:10374C0061746500686173206461746100736C6FEF
:10375C007420003E206261747465727920696E6613
:10376C006F0020206261747465727920696E666FD7
:10377C00003E2067707320636F6F726473002020AB
:10378C0067707320636F6F726473003E2073617691
:10379C006520776179706F696E7400202073617693
:1037AC006520776179706F696E74003E207761795E
:1037BC00706F696E74206C69737400202077617966
:1037CC00706F696E74206C697374006D656E750032
:1037DC0075702F646F776E3A207363726F6C6C0028
:1037EC0072696768743A2073656C65637400766FF0
:1037FC006C746167653A200070657263656E743A2B
:10380C0020007374617475733A20006172652079BD
:10381C006F7520737572653F0072696768743A2022
:10382C007965732073656E6420736F7300616371C7
:10383C00756972696E67206770732E2E2E00656C29
:10384C0061707365643A200074696D656F75743AC4
:10385C002036307300677073206E6F206669782194
:10386C0000747279206F75747369646500736F737B
:10387C002061726D65642100666F726D617474698C
:10388C006E672E2E2E00666F726D617474696E6792
:10389C00206D73672E2E2E0073656E64696E672023
:1038AC00736F732E2E2E00736F732073656E7421DD
:1038BC000068656C7020697320636F6D696E672199
:1038CC000073746179207075740073656E64206682
:1038DC0061696C65642100736F733A207265747250
:1038EC0079006C6F77206261747465727921007352
:1038FC006F73207374696C6C20776F726B730073C9
:10390C00797374656D006572726F722100726573E4
:10391C0074617274696E672E2E2E007368757474E0
:10392C00696E6700646F776E2E2E2E006F7665724F
:10393C0077726974653F0072696768743A207965BB
:10394C0073006C6566743A206E6F00726561646911
:10395C006E67206770732E2E2E0072696768743A3A
:10396C0020636F6E6669726D006E6F2067707320D6
:10397C0066697800776179706F696E74207361760F
:10398C006564210061727269766564210024475078
:10399C00524D430024474E524D43006E006E65005D
:0A39AC007365007377006E7700006A
:00000001FF
