:100000000C94E1000C9400010C9400010C9400018C
:100010000C9400010C9400010C9400010C9400015C
:100020000C9400010C9400010C9400010C9400014C
:100030000C9400010C9400010C9400010C9400013C
:100040000C9400010C9400010C9400010C9400012C
:100050000C9400010C9400010C9400010C9400011C
:100060000C9400010C9400010C9400010C9400010C
:100070000C9400010C9400010C9400010C940001FC
:100080000C9400010C9400010C9400014E414E4967
:100090004E495459494E46CDCCCC3D0AD7233C1746
:1000A000B7D13877CC2B329595E6241FB14F0A0093
:1000B0000020410000C84200401C4620BCBE4CCA83
:1000C0001B0E5AAEC59D7400407A10F35A00A07200
:1000D0004E18090010A5D4E80000E8764817000083
:1000E000E40B54020000CA9A3B000000E1F5050051
:1000F0000080969800000040420F000000A086019A
:10010000000000102700000000E803000000006469
:1001100000000000000A00000000000100000000D4
:10012000002C76D888DC674F0823DFC1DFAE59E1A9
:10013000B1B796E5E3E453C63AE651997696E8E618
:10014000C28426EB898C9B62ED407C6FFCEFBC9CEB
:100150009F40F2BAA56FA5F490055A2AF75C936BFD
:100160006CF9676DC11BFCE0E40D47FEF520E6B5B8
:1001700000D0ED902E0300943577050080841E0892
:100180000000204E0A000000C80C333333330F98B0
:100190006E12831141EF8D2114893BE65516CFFE77
:1001A000E6DB18D1844B381BF77C1D901DA4BBE403
:1001B00024203284725E228100C9F124ECA1E53D45
:1001C000270011241FBECFEFD0E4DEBFCDBF13E068
:1001D000A0E0B1E0E6EFF5E100E00BBF02C0079060
:1001E0000D92A43CB107D9F723E2A4ECB3E001C01F
:1001F0001D92A63CB207E1F70E942B040C94F90A69
:100200000C940000CF93DF9330E0FC0171917111E9
:1002100002C0E0E01BC07C3219F43F5FCF01F5CF94
:100220003613FCCFDC012150330B01C09883EA2F39
:10023000E81B9D916E2F70E0EA01C60FD71F99232E
:1002400029F09C3219F06217730784F3E40FF52F3D
:10025000F11D1082DF91CF9108958F929F92AF92FE
:10026000BF92CF92DF92EF92FF92CF93DF93FC0188
:100270002081222309F444C0EB010E944F064B0168
:100280005C0120E030E048EC52E40E94FB040E9454
:100290006D056B0184E68C9DB0018D9D700D112460
:1002A000072E000C880B990B0E94A5059B01AC0141
:1002B000C501B4010E948E0420E030E040E752E422
:1002C0000E94FB044B015C01B601DD0C880B990B0D
:1002D0000E94A5059B01AC01C501B4010E948F04D9
:1002E00028812B7F233509F49058DF91CF91FF901F
:1002F000EF90DF90CF90BF90AF909F908F90089538
:1003000060E070E0CB01F1CF1092C5008FE28093E6
:10031000C40088E18093C10086E08093C200089504
:100320000F931F93CF93DF93CDB7DEB7CA57D10991
:100330000FB6F894DEBF0FBECDBF8C018091C00018
:1003400087FFFCCF8091C6008432C1F78983DE012C
:100350001296E1E08091C00087FFFCCF8091C6003B
:100360008A3021F0EF5F8D93E135A1F781E090E0D5
:100370008C0F9D1F8E0F911DFC01108246E050E0F6
:1003800065EB73E0CE0101960E946506892B51F062
:1003900046E050E06CEB73E0CE0101960E946506EA
:1003A000892B61F62CE0AE0145595F4F62E0CE012A
:1003B00001960E940201AC968FADAC97813409F092
:1003C0007AC02CE0AE01415A5F4F63E0CE01019646
:1003D0000E94020122E0AE0147585F4F64E0CE0167
:1003E00001960E940201BE0167587F4FCE01815ADB
:1003F0009F4F0E942D01F801608371838283938354
:100400002CE0AE014D5A5F4F65E0CE0101960E948F
:10041000020122E0AE0149585F4F66E0CE0101962D
:100420000E940201BE0169587F4FCE018D5A9F4F35
:100430000E942D01F80164837583868397832CE0E5
:10044000AE0145595F4F61E0CE0101960E94020165
:10045000AC962FADAC9720539AE0AD968FADAD978B
:100460008053299F800D1124F8018087AE962FAD0F
:10047000AE972053AF968FADAF978053299F800DD5
:1004800011248187E0962FADE0972053E1968FAD40
:10049000E1978053299F800D1124828781E0C658FF
:1004A000DF4F0FB6F894DEBF0FBECDBFDF91CF9107
:1004B0001F910F91089580E0F2CF8093BB0084E8F4
:1004C0008093BC008091BC0087FFFCCF9091B90065
:1004D000987F81E0983209F080E0089584E9809364
:1004E000BC008091BC0084FDFCCF089584EA809319
:1004F000BC008091BC0087FFFCCF8AE78093BB00E3
:1005000084E88093BC008091BC0087FFFCCF909171
:10051000B900987F81E0983109F080E00895EF926A
:10052000FF920F931F93CF93DF93182FE92E062F7F
:100530000E947602882381F080E00E945D02882379
:1005400041F0F12EC12FDE2D89910E945D028111B3
:100550000AC00E946E0280E0DF91CF911F910F913F
:10056000FF90EF9008958C2F8F19801768F30E94E9
:100570006E0281E0F1CFCF93C82F0E9476028823CC
:1005800041F080E80E945D02811105C00E946E0268
:1005900080E0CF9108958C2F0E945D028823B1F3F3
:1005A0000E946E0281E0F5CF8F7090E1899F9001EB
:1005B0001124822BE4ECF3E0819393E2E43CF9070D
:1005C000D9F7089587FD18C067FD16C04F7090E4F5
:1005D000699FB0011124E82FE695E60FF72FF11D72
:1005E000EC53FC4F908180FD08C09F7080E1489FD4
:1005F000A0011124942B90830895907FFBCF9F92AC
:10060000AF92BF92CF92DF92EF92FF920F931F9320
:10061000CF93DF9300D000D000D0CDB7DEB786E017
:10062000E0E0F1E0DE01119601900D928A95E1F78C
:1006300066E0CE0101960E948F0284ECA82E83E032
:10064000B82E84ECA81683E2B80691F426960FB66D
:10065000F894DEBF0FBECDBFDF91CF911F910F91F8
:10066000FF90EF90DF90CF90BF90AF909F90089554
:10067000750110E4012F113108F000E10E947602AB
:10068000882349F080E40E945D029E2C670181115D
:100690000AC00E946E02E00EF11C101B59F7F0E434
:1006A000AF0EB11CCECFF60181916F010E945D02A9
:1006B000882379F38C2D89198017A8F3EACF87B1A5
:1006C0008C7F87B988B1836088B91092B9008CE1BA
:1006D0008093B80084E08093BC00569A5E9A8FEFB6
:1006E00097E40197F1F700C000005E988FEF9FE854
:1006F0000197F1F700C000005E9A8FEF9FE8019725
:10070000F1F700C000006EE186E091E00E948F02E8
:100710009FEF2FE382E0915020408040E1F700C03E
:1007200000008FEA0E94BB0281E80E94BB028FE2B8
:100730000E94BB0280E00E94D4020C94FF023F9210
:100740004F925F926F927F928F929F92AF92BF92E1
:10075000CF92DF92EF92FF920F931F93CF93DF938D
:1007600047FD33C0D22F562EC22FC80F85E0480256
:1007700070011124D12CC12CF601EE0DFF1DEC5D92
:10078000FE4F80804C2E4D1A1D2F150DB12CA12C23
:10079000912CC4010A2C02C0959587950A94E2F722
:1007A000312E3D1A742C80FD2BC08FEFA81AB80A89
:1007B0001D0F87E0A816B10461F78FEFC81AD80A99
:1007C000CD0F85E0C816D104B9F6DF91CF911F9106
:1007D0000F91FF90EF90DF90CF90BF90AF909F90E0
:1007E0008F907F906F905F904F903F900895402F33
:1007F000662D872D0E94E20263941611F8CF739440
:100800007C1699F2632CF9CFCF92DF92EF92FF9290
:100810000F931F93CF93DF93D82FD62E122FC02E76
:10082000C22FCC0FC20FCC0F7A01F70141917F018B
:10083000411109C0DF91CF911F910F91FF90EF906F
:10084000DF90CF9008950C2D212F6D2D8D2F0E94BC
:100850009F03DC0FEACFCF93DF93CDB7DEB7AF971F
:100860000FB6F894DEBF0FBECDBF0E945F030E949B
:100870008401CE0185960E949001882309F444C02A
:1008800080E00E94D4026DA17EA18FA198A58E0167
:10089000075E1F4F24E049E00E94310664EA73E0DE
:1008A000CE0101960E945E06B801CE0101960E941B
:1008B00053060FE021E0AE014F5F5F4F64E382E03B
:1008C0000E94040469A57AA58BA59CA58E01075EEC
:1008D0001F4F24E049E00E94310669EA73E0CE012F
:1008E00001960E945E06B801CE0101960E94530651
:1008F0000FE021E0AE014F5F5F4F61E482E00E94B4
:1009000004040E94FF02B5CF80E00E94D4020FE0F1
:1009100021E04EEA53E06DE38CE1F1CF5058BB2764
:10092000AA270E94A6040C94F7050E94E90538F056
:100930000E94F00520F039F49F3F19F426F40C943E
:10094000E6050EF4E095E7FB0C94E005E92F0E9424
:10095000080658F3BA17620773078407950720F053
:1009600079F4A6F50C942A060EF4E0950B2EBA2F16
:10097000A02D0B01B90190010C01CA01A0011124A5
:10098000FF27591B99F0593F50F4503E68F11A1651
:10099000F040A22F232F342F4427585FF3CF4695E2
:1009A00037952795A795F0405395C9F77EF41F1604
:1009B000BA0B620B730B840BBAF09150A1F0FF0FCE
:1009C000BB1F661F771F881FC2F70EC0BA0F621FBA
:1009D000731F841F48F4879577956795B795F795AA
:1009E0009E3F08F0B0CF9395880F08F09927EE0F3F
:1009F0009795879508950E940F050C94F7050E941E
:100A0000F00558F00E94E90540F029F45F3F29F015
:100A10000C94E00551110C942B060C94E6050E94F1
:100A2000080668F39923B1F3552391F3951B550BF1
:100A3000BB27AA2762177307840738F09F5F5F4FB1
:100A4000220F331F441FAA1FA9F335D00E2E3AF0F0
:100A5000E0E832D091505040E695001CCAF72BD008
:100A6000FE2F29D0660F771F881FBB1F2617370759
:100A70004807AB07B0E809F0BB0B802DBF01FF278B
:100A800093585F4F3AF09E3F510578F00C94E00583
:100A90000C942B065F3FE4F3983ED4F3869577954C
:100AA0006795B795F7959F5FC9F7880F911D969544
:100AB000879597F90895E1E0660F771F881FBB1FA0
:100AC000621773078407BA0720F0621B730B840B4D
:100AD000BA0BEE1F88F7E09508950E94740568949C
:100AE000B1110C942B0608950E94100688F09F57B0
:100AF00098F0B92F9927B751B0F0E1F0660F771F42
:100B0000881F991F1AF0BA95C9F714C0B13091F037
:100B10000E942A06B1E008950C942A06672F782FC8
:100B20008827B85F39F0B93FCCF3869577956795FC
:100B3000B395D9F73EF490958095709561957F4F68
:100B40008F4F9F4F0895E89409C097FB3EF490950E
:100B50008095709561957F4F8F4F9F4F9923A9F096
:100B6000F92F96E9BB279395F69587957795679525
:100B7000B795F111F8CFFAF4BB0F11F460FF1BC069
:100B80006F5F7F4F8F4F9F4F16C0882311F096E9FC
:100B900011C0772321F09EE8872F762F05C06623AA
:100BA00071F096E8862F70E060E02AF09A95660F63
:100BB000771F881FDAF7880F9695879597F908951C
:100BC00097F99F6780E870E060E008959FEF80EC00
:100BD000089500240A9416161706180609060895A3
:100BE00000240A9412161306140605060895092E09
:100BF0000394000C11F4882352F0BB0F40F4BF2B78
:100C000011F460FF04C06F5F7F4F8F4F9F4F0895B7
:100C100057FD9058440F551F59F05F3F71F04795AD
:100C2000880F97FB991F61F09F3F79F08795089592
:100C3000121613061406551FF2CF4695F1DF08C0B1
:100C4000161617061806991FF1CF869571056105CE
:100C500008940895E894BB2766277727CB0197F976
:100C60000895EF920F931F93CF93DF93E80134E041
:100C700047FD34E1042E000C550B57FF03C051957E
:100C800041955109E32E022F242FAE010E947306D5
:100C9000CE01DF91CF911F910F91EF9008956627BC
:100CA00077270C94EF07FB01DC010D900020E9F79A
:100CB000119701900D920020E1F70895FB01DC01EE
:100CC00001900D920020E1F70895FB01DC014150F5
:100CD000504030F08D910190801919F40020B9F73F
:100CE000881B990B08958F929F92AF92BF92CF92DB
:100CF000DF92EF92FF920F931F93CF93DF93CDB7C5
:100D0000DEB729970FB6F894DEBF0FBECDBF6A01DC
:100D1000F22EB02E102FFBE3AF2EA01608F41BE32B
:100D20001F5F012F27E0AE014F5F5F4F0E944D090B
:100D3000BC018981982F9970913009F44EC09BE2D3
:100D4000E1FC04C09E2D9170E0FC49C05E2D507105
:100D5000E82FE87083FF55C084E0911101C083E063
:100D6000EF2DE81B8F1508F0E0E0D6018E2F20E272
:100D70005523C9F1992329F0D6019C93C601019608
:100D80006C0196012D5F3F4FE2FE33C08EE4D60129
:100D90008C9391E411969C93119712968C93D901A0
:100DA0008E2F90E281112AC0E20FF32FF11D1082E5
:100DB0008EEF9FEF29960FB6F894DEBF0FBECDBF22
:100DC000DF91CF911F910F91FF90EF90DF90CF9027
:100DD000BF90AF909F908F9008959DE2B7CF90E223
:100DE000B5CF2D9381508111FCCFCE0ED11CE0E008
:100DF000C1CF8EE6D6018C9391E6CCCF9D938150E6
:100E0000D1CF482F447082FF3DC084E0911101C0D2
:100E100083E08F1510F4EF2DE81BD6018E2F20E212
:100E2000552309F1992329F0D6019C93C601019617
:100E30006C0196012D5F3F4FE2FE1BC089E4D60195
:100E40008C938EE411968C93119786E412968C9372
:100E5000D9018E2F90E2882309F4A6CF9D9381506B
:100E6000FACF2D9381508111FCCFCE0ED11CE0E042
:100E7000D9CF89E6D6018C938EE611968C93119783
:100E800086E6E4CF9B0177FF02C030E020E0A1E0DE
:100E9000B0E0911102C0B0E0A0E0F9013196AE0FD0
:100EA000BF1F8B2C912CBB2009F461C05401EFEFC4
:100EB000AE1ABE0AAA0DBB1DFA161B0619F014F0D5
:100EC0004F2D4A1B511188C0E3FC59C07601A42F55
:100ED000B0E2A1114FC0C40ED11C992309F45BC02C
:100EE00040E0D6011196F60190836D01552309F477
:100EF00048C0012F060F9A81582F507184FF03C0FC
:100F0000913309F4015010160CF047C0093008F075
:100F100008E0EEE2FE2E5B01A01AB1088501919473
:100F2000819491082F3F320729F4D601FC92F601F3
:100F300031966F016217730794F1021713077CF55E
:100F4000DB01A21BB30BAA24A394B12CAC0EBD1ED3
:100F5000AA0DBB1D11968C9121503109D601119615
:100F600028153905F4F0F60180836D01DBCFB12C33
:100F7000A12CA0CFF701B1937F01A150AACF91116D
:100F8000B0CFD601942F50E302C05D9391509111E0
:100F9000FCCFC40ED11C40E0ACCF01E0BACF80E35F
:100FA000DBCF6217730731F4963388F4953311F46D
:100FB000552369F0F6018083FD01842F90E28111B1
:100FC00008C0A40FB11D1C9290E080E0F3CE81E335
:100FD000F1CF91938150F3CF911183CF8ACF8F922C
:100FE0009F92AF92BF92CF92DF92EF92FF920F93B8
:100FF0001F93CF93DF935C017B016115710519F09D
:10100000DB018D939C9385010F5F1F4FF501D0810C
:101010008D2F90E00E94250A6C01892BB9F5DD32F5
:10102000B9F50F5F1F4FD5011196DC91C1E0580152
:10103000F1E0AF1AB10843E050E064E970E0C501A7
:101040000E942E0A892B69F5680182E0C80ED11C26
:1010500045E050E06FE870E0C6010E942E0A892B3F
:1010600021F4680197E0C90ED11CE114F10419F0D4
:10107000D701CD92DC9260E070E080E89FEFC11173
:10108000FFC060E070E080E89FE7FAC05801BBCF86
:10109000DB3229F485010E5F1F4FF501D181C0E0DD
:1010A000C6CF43E050E06CE870E0C5010E942E0A14
:1010B000892BE9F0F80110E000E020E030E0A90120
:1010C0005F01B0ED8B2E8D0E89E08815C8F19C2E46
:1010D000689491F88C2F8870C2FF16C0811102C0ED
:1010E0000F5F1F4F3196D501DC91C92DE9CFE11477
:1010F000F10429F00E5F1F4FF7011183008360E0B8
:1011000070E080EC9FE7BCC0882311F0015011090A
:10111000A5E0B0E00E94DF0A9B01AC01220F331F63
:10112000441F551F280D311D411D511D283999E9B6
:101130003907490799E15907A8F2C6609C2ED2CF1A
:10114000AEEF8A1206C0C3FD3CC09C2E689493F893
:10115000C9CFDF7DD534A9F580818D3239F4C061E6
:10116000DF011296818162E070E006C0DF018B3200
:10117000C1F3119661E070E080535D01A61AB70AD1
:101180008A30F8F4E0E8CE16ECE0DE065CF4B60156
:10119000660F771F660F771FC60ED71ECC0CDD1C9F
:1011A000C80ED11C5D01FFEFAF1ABF0A8C918053AE
:1011B0008A30A8F1C4FF03C0D194C194D1080C0DAA
:1011C0001D1DC1FF09C0E114F10431F081E0A81A2E
:1011D000B108D701AD92BC92CA01B9010E94A30522
:1011E000C370C33009F490584B015C0120E030E03B
:1011F000A9010E94460A882309F440C0C3ECD0E04C
:1012000017FF05C0119501951109CBEAD0E06E01D9
:10121000B8E1CB1AD10880E2E82EF12C0FC0D5013D
:10122000B1CFFE0125913591459154910E191F09B9
:10123000C501B4010E946F0A4B015C01D501C401D4
:101240000E151F0574F72497F594E794CC16DD0668
:10125000A9F78A2F880F8B2F881F8F3F49F020E036
:1012600030E0A901C501B4010E94460A811106C0FF
:1012700082E290E09093C5238093C423C501B4011A
:10128000DF91CF911F910F91FF90EF90DF90CF9062
:10129000BF90AF909F908F900895283008F027E07E
:1012A0003327DA01990F311D87FD916000966105A2
:1012B000710539F432602E5F3D9330E32A95E1F7F2
:1012C00008959F3F30F080387105610509F03C5F5B
:1012D0003C5F3D93913008F08068911DDF93CF9380
:1012E0001F930F93FF92EF92192F987F9695E92FF6
:1012F00096959695E90FFF27EF5DFE4F99273327C7
:10130000EE24FF24A701E70105900894079428F430
:10131000360FE71EF81E491F511D660F771F881FE5
:10132000991F0694A1F70590079428F4E70EF81E7C
:10133000491F561FC11D770F881F991F661F0694EE
:10134000A1F70590079428F4F80E491F561FC71FF0
:10135000D11D880F991F661F771F0694A1F705906E
:10136000079420F4490F561FC71FD81F990F661FF7
:10137000771F881F0694A9F784911095177041F084
:10138000D695C79557954795F794E7941A95C1F761
:10139000E7ECF0E068941590159135916591959181
:1013A00005907FE27395E118F10A430B560BC90BC8
:1013B000D009C0F7E10CF11E431F561FC91FD01DF5
:1013C0007EF4703311F48A95E6CFE894015030F042
:1013D000080F0AF40027021708F4202F2395022F84
:1013E0007A3328F079E37D932A95E9F710C07D934D
:1013F0002A9589F6069497956795379517951794CA
:10140000E118F10A430B560BC90BD00998F023954C
:101410007E9173957A3308F070E37C932013B8F7CC
:101420007E9170617D9330F0839571E37D9370E3DD
:101430002A95E1F71124EF90FF900F911F91CF9122
:10144000DF91992787FD9095089591110C94DC0AFE
:10145000803219F089508550C8F70895FB01DC01EE
:101460004150504088F08D9181341CF08B350CF444
:10147000805E659161341CF06B350CF4605E861BF8
:10148000611171F3990B0895881BFCCF0E944B0AE0
:1014900008F481E00895990F0008550FAA0BE0E8C1
:1014A000FEEF16161706E807F907C0F01216130626
:1014B000E407F50798F0621B730B840B950B39F466
:1014C0000A2661F0232B242B252B21F408950A26CC
:1014D00009F4A140A6958FEF811D811D08950E94FA
:1014E000820A0C94F7050E94E90538F00E94F00585
:1014F00020F0952311F00C94E0050C94E6051124DE
:101500000C942B060E94080670F3959FC1F3950F6B
:1015100050E0551F629FF001729FBB27F00DB11D77
:10152000639FAA27F00DB11DAA1F649F6627B00D07
:10153000A11D661F829F2227B00DA11D621F739FF0
:10154000B00DA11D621F839FA00D611D221F749FFE
:101550003327A00D611D231F849F600D211D822F45
:10156000762F6A2F11249F5750409AF0F1F088236C
:101570004AF0EE0FFF1FBB1F661F771F881F915099
:101580005040A9F79E3F510580F00C94E0050C9463
:101590002B065F3FE4F3983ED4F3869577956795E5
:1015A000B795F795E7959F5FC1F7FE2B880F911DC3
:1015B0009695879597F908959927882708950E9409
:1015C000EA0AA59F900DB49F900DA49F800D911DD8
:1015D00011240895A29FB001B39FC001A39F700D75
:1015E000811D1124911DB29F700D811D1124911D2B
:0615F0000895F894FFCFFE
:1015F60075007F15003FAE8180A051A100A200A614
:10160600A87FB111B300AB01B604BE0FBC08D5620A
:10161600FD12A4AF00000000000000000000000062
:1016260000000000000000000000000000000000B4
:1016360000000000000000000000000000000000A4
:101646000000000000000000000000000000000094
:101656000000000000000000000000000000000084
:101666000000000000000000000000000000000074
:101676000000000000000000000000000000000064
:101686000000000000000000000000000000000054
:101696000000000000000000000000000000000044
:1016A6000000000000000000000000000000000034
:1016B60000000000000000000000005F00000000C5
:1016C6000000000000000000000000000000000014
:1016D6000000000000000000000000000000000004
:1016E60000000000000000000000000000000000F4
:1016F60000000000000808080808006060000000FC
:10170600000000003E5149453E00427F40004261D4
:101716005149462141454B311814127F1027454542
:1017260045393C4A49493001710905033649494959
:1017360036064949291E0036360000000000000022
:101746000000000000000000000000000000000093
:101756000000000000000000000000000000000083
:101766000000000000000000000000000000000073
:101776000000000000000000000000000000000063
:101786000000000000000000000000000000000053
:101796000000000000000000000000000000000043
:1017A6000000000000000000000000000000000033
:1017B6000000000000000000000000000000000023
:1017C6000000000000000000000000000000000013
:1017D6000000000000000000000000000000000003
:1017E60000000000000000000000000000000000F3
:1017F60000000000000000000020545454787F4888
:101806004444383844444420384444487F38545487
:101816005418087E0901020C5252523E7F080404F5
:101826007800447D40002040443D007F102844005D
:1018360000417F40007C041804787C080404783852
:10184600444444387C14141408081414187C7C0886
:101856000404084854545420043F4440203C40406B
:10186600207C1C2040201C3C4030403C4428102852
:10187600440C5050503C4464544C4400000000005A
:101886000000000000000000000000000000000052
:10189600000000006C61743A006C6F6E3A006E6F67
:1018A6002066697800244750524D430024474E5223
:0418B6004D4300009E
:00000001FF
